{
	"contructs/patientserial.sol": {
		"myContract": {
			"abi": [
				{
					"anonymous": false,
					"inputs": [
						{
							"indexed": false,
							"internalType": "uint256",
							"name": "doctorId",
							"type": "uint256"
						},
						{
							"indexed": false,
							"internalType": "string",
							"name": "name",
							"type": "string"
						},
						{
							"indexed": false,
							"internalType": "string",
							"name": "digree",
							"type": "string"
						},
						{
							"indexed": false,
							"internalType": "string",
							"name": "Spaciality",
							"type": "string"
						},
						{
							"indexed": false,
							"internalType": "uint256",
							"name": "dutyStartTime",
							"type": "uint256"
						},
						{
							"indexed": false,
							"internalType": "uint256",
							"name": "dutyEndTime",
							"type": "uint256"
						},
						{
							"indexed": false,
							"internalType": "bool",
							"name": "Availablity",
							"type": "bool"
						},
						{
							"indexed": false,
							"internalType": "uint256",
							"name": "roomNo",
							"type": "uint256"
						}
					],
					"name": "adddoctor",
					"type": "event"
				},
				{
					"anonymous": false,
					"inputs": [
						{
							"indexed": false,
							"internalType": "uint256",
							"name": "Date",
							"type": "uint256"
						},
						{
							"indexed": false,
							"internalType": "uint256",
							"name": "patientId",
							"type": "uint256"
						},
						{
							"indexed": false,
							"internalType": "string",
							"name": "name",
							"type": "string"
						},
						{
							"indexed": false,
							"internalType": "uint256",
							"name": "age",
							"type": "uint256"
						},
						{
							"indexed": false,
							"internalType": "string",
							"name": "syndrome",
							"type": "string"
						},
						{
							"indexed": false,
							"internalType": "uint256",
							"name": "serialNo",
							"type": "uint256"
						},
						{
							"indexed": false,
							"internalType": "uint256",
							"name": "roomNo",
							"type": "uint256"
						},
						{
							"indexed": false,
							"internalType": "uint256",
							"name": "doctorId",
							"type": "uint256"
						},
						{
							"indexed": false,
							"internalType": "bool",
							"name": "paymentStatus",
							"type": "bool"
						},
						{
							"indexed": false,
							"internalType": "bool",
							"name": "special",
							"type": "bool"
						},
						{
							"indexed": false,
							"internalType": "bool",
							"name": "sarved",
							"type": "bool"
						}
					],
					"name": "addpatient",
					"type": "event"
				},
				{
					"inputs": [
						{
							"internalType": "uint256",
							"name": "",
							"type": "uint256"
						}
					],
					"name": "PatientsSerial",
					"outputs": [
						{
							"internalType": "uint256",
							"name": "serialNo",
							"type": "uint256"
						},
						{
							"internalType": "uint256",
							"name": "patientId",
							"type": "uint256"
						},
						{
							"internalType": "bool",
							"name": "sarved",
							"type": "bool"
						}
					],
					"stateMutability": "view",
					"type": "function"
				},
				{
					"inputs": [
						{
							"internalType": "uint256",
							"name": "_date",
							"type": "uint256"
						},
						{
							"internalType": "string",
							"name": "_name",
							"type": "string"
						},
						{
							"internalType": "uint256",
							"name": "_age",
							"type": "uint256"
						},
						{
							"internalType": "string",
							"name": "_syndrome",
							"type": "string"
						},
						{
							"internalType": "uint256",
							"name": "_roomNo",
							"type": "uint256"
						},
						{
							"internalType": "uint256",
							"name": "_doctorId",
							"type": "uint256"
						},
						{
							"internalType": "bool",
							"name": "_paymentStatus",
							"type": "bool"
						},
						{
							"internalType": "bool",
							"name": "_special",
							"type": "bool"
						}
					],
					"name": "addSerial",
					"outputs": [],
					"stateMutability": "nonpayable",
					"type": "function"
				},
				{
					"inputs": [],
					"name": "doctorCount",
					"outputs": [
						{
							"internalType": "uint256",
							"name": "",
							"type": "uint256"
						}
					],
					"stateMutability": "view",
					"type": "function"
				},
				{
					"inputs": [
						{
							"internalType": "uint256",
							"name": "",
							"type": "uint256"
						}
					],
					"name": "doctors",
					"outputs": [
						{
							"internalType": "uint256",
							"name": "doctorId",
							"type": "uint256"
						},
						{
							"internalType": "string",
							"name": "name",
							"type": "string"
						},
						{
							"internalType": "string",
							"name": "digree",
							"type": "string"
						},
						{
							"internalType": "string",
							"name": "Spaciality",
							"type": "string"
						},
						{
							"internalType": "uint256",
							"name": "dutyStartTime",
							"type": "uint256"
						},
						{
							"internalType": "uint256",
							"name": "dutyEndTime",
							"type": "uint256"
						},
						{
							"internalType": "bool",
							"name": "Availablity",
							"type": "bool"
						},
						{
							"internalType": "uint256",
							"name": "roomNo",
							"type": "uint256"
						}
					],
					"stateMutability": "view",
					"type": "function"
				},
				{
					"inputs": [],
					"name": "patientCount",
					"outputs": [
						{
							"internalType": "uint256",
							"name": "",
							"type": "uint256"
						}
					],
					"stateMutability": "view",
					"type": "function"
				},
				{
					"inputs": [
						{
							"internalType": "uint256",
							"name": "",
							"type": "uint256"
						}
					],
					"name": "patients",
					"outputs": [
						{
							"internalType": "uint256",
							"name": "Date",
							"type": "uint256"
						},
						{
							"internalType": "uint256",
							"name": "patientId",
							"type": "uint256"
						},
						{
							"internalType": "string",
							"name": "name",
							"type": "string"
						},
						{
							"internalType": "uint256",
							"name": "age",
							"type": "uint256"
						},
						{
							"internalType": "string",
							"name": "syndrome",
							"type": "string"
						},
						{
							"internalType": "uint256",
							"name": "serialNo",
							"type": "uint256"
						},
						{
							"internalType": "uint256",
							"name": "roomNo",
							"type": "uint256"
						},
						{
							"internalType": "uint256",
							"name": "doctorId",
							"type": "uint256"
						},
						{
							"internalType": "bool",
							"name": "paymentStatus",
							"type": "bool"
						},
						{
							"internalType": "bool",
							"name": "special",
							"type": "bool"
						},
						{
							"internalType": "bool",
							"name": "sarved",
							"type": "bool"
						}
					],
					"stateMutability": "view",
					"type": "function"
				},
				{
					"inputs": [],
					"name": "serialCount",
					"outputs": [
						{
							"internalType": "uint256",
							"name": "",
							"type": "uint256"
						}
					],
					"stateMutability": "view",
					"type": "function"
				},
				{
					"inputs": [],
					"name": "specialPatientCount",
					"outputs": [
						{
							"internalType": "uint256",
							"name": "",
							"type": "uint256"
						}
					],
					"stateMutability": "view",
					"type": "function"
				}
			],
			"devdoc": {
				"kind": "dev",
				"methods": {},
				"version": 1
			},
			"evm": {
				"assembly": "    /* \"contructs/patientserial.sol\":60:2926  contract myContract{... */\n  mstore(0x40, 0x80)\n    /* \"contructs/patientserial.sol\":855:856  1 */\n  0x01\n    /* \"contructs/patientserial.sol\":845:856  uint head=1 */\n  0x03\n  sstore\n    /* \"contructs/patientserial.sol\":869:870  1 */\n  0x01\n    /* \"contructs/patientserial.sol\":859:870  uint tail=1 */\n  0x04\n  sstore\n    /* \"contructs/patientserial.sol\":897:898  0 */\n  0x00\n    /* \"contructs/patientserial.sol\":873:898  uint public doctorCount=0 */\n  0x05\n  sstore\n    /* \"contructs/patientserial.sol\":926:927  0 */\n  0x00\n    /* \"contructs/patientserial.sol\":901:927  uint public patientCount=0 */\n  0x06\n  sstore\n    /* \"contructs/patientserial.sol\":962:963  0 */\n  0x00\n    /* \"contructs/patientserial.sol\":930:963  uint public specialPatientCount=0 */\n  0x07\n  sstore\n    /* \"contructs/patientserial.sol\":990:991  0 */\n  0x00\n    /* \"contructs/patientserial.sol\":966:991  uint public serialCount=0 */\n  0x08\n  sstore\n    /* \"contructs/patientserial.sol\":60:2926  contract myContract{... */\n  callvalue\n  dup1\n  iszero\n  tag_1\n  jumpi\n  0x00\n  dup1\n  revert\ntag_1:\n  pop\n  dataSize(sub_0)\n  dup1\n  dataOffset(sub_0)\n  0x00\n  codecopy\n  0x00\n  return\nstop\n\nsub_0: assembly {\n        /* \"contructs/patientserial.sol\":60:2926  contract myContract{... */\n      mstore(0x40, 0x80)\n      callvalue\n      dup1\n      iszero\n      tag_1\n      jumpi\n      0x00\n      dup1\n      revert\n    tag_1:\n      pop\n      jumpi(tag_2, lt(calldatasize, 0x04))\n      shr(0xe0, calldataload(0x00))\n      dup1\n      0x93119a83\n      gt\n      tag_11\n      jumpi\n      dup1\n      0x93119a83\n      eq\n      tag_7\n      jumpi\n      dup1\n      0xa0303c41\n      eq\n      tag_8\n      jumpi\n      dup1\n      0xb613e00a\n      eq\n      tag_9\n      jumpi\n      dup1\n      0xc8f6306d\n      eq\n      tag_10\n      jumpi\n      jump(tag_2)\n    tag_11:\n      dup1\n      0x0441078a\n      eq\n      tag_3\n      jumpi\n      dup1\n      0x12e4c274\n      eq\n      tag_4\n      jumpi\n      dup1\n      0x6efb1b84\n      eq\n      tag_5\n      jumpi\n      dup1\n      0x78522bc4\n      eq\n      tag_6\n      jumpi\n    tag_2:\n      0x00\n      dup1\n      revert\n        /* \"contructs/patientserial.sol\":2060:2911  function addSerial(uint _date,string memory  _name,uint _age,string memory _syndrome,uint _roomNo, uint _doctorId,bool _paymentStatus,bool _special) public doctorExistency(_doctorId) doctorAvailablity(_doctorId)... */\n    tag_3:\n      tag_12\n      0x04\n      dup1\n      calldatasize\n      sub\n      dup2\n      add\n      swap1\n      tag_13\n      swap2\n      swap1\n      tag_14\n      jump\t// in\n    tag_13:\n      tag_15\n      jump\t// in\n    tag_12:\n      stop\n        /* \"contructs/patientserial.sol\":798:842  mapping(uint =>Serial) public PatientsSerial */\n    tag_4:\n      tag_16\n      0x04\n      dup1\n      calldatasize\n      sub\n      dup2\n      add\n      swap1\n      tag_17\n      swap2\n      swap1\n      tag_18\n      jump\t// in\n    tag_17:\n      tag_19\n      jump\t// in\n    tag_16:\n      mload(0x40)\n      tag_20\n      swap4\n      swap3\n      swap2\n      swap1\n      tag_21\n      jump\t// in\n    tag_20:\n      mload(0x40)\n      dup1\n      swap2\n      sub\n      swap1\n      return\n        /* \"contructs/patientserial.sol\":715:752  mapping(uint =>Doctor) public doctors */\n    tag_5:\n      tag_22\n      0x04\n      dup1\n      calldatasize\n      sub\n      dup2\n      add\n      swap1\n      tag_23\n      swap2\n      swap1\n      tag_18\n      jump\t// in\n    tag_23:\n      tag_24\n      jump\t// in\n    tag_22:\n      mload(0x40)\n      tag_25\n      swap9\n      swap8\n      swap7\n      swap6\n      swap5\n      swap4\n      swap3\n      swap2\n      swap1\n      tag_26\n      jump\t// in\n    tag_25:\n      mload(0x40)\n      dup1\n      swap2\n      sub\n      swap1\n      return\n        /* \"contructs/patientserial.sol\":873:898  uint public doctorCount=0 */\n    tag_6:\n      tag_27\n      tag_28\n      jump\t// in\n    tag_27:\n      mload(0x40)\n      tag_29\n      swap2\n      swap1\n      tag_30\n      jump\t// in\n    tag_29:\n      mload(0x40)\n      dup1\n      swap2\n      sub\n      swap1\n      return\n        /* \"contructs/patientserial.sol\":755:795  mapping(uint => Patient) public patients */\n    tag_7:\n      tag_31\n      0x04\n      dup1\n      calldatasize\n      sub\n      dup2\n      add\n      swap1\n      tag_32\n      swap2\n      swap1\n      tag_18\n      jump\t// in\n    tag_32:\n      tag_33\n      jump\t// in\n    tag_31:\n      mload(0x40)\n      tag_34\n      swap12\n      swap11\n      swap10\n      swap9\n      swap8\n      swap7\n      swap6\n      swap5\n      swap4\n      swap3\n      swap2\n      swap1\n      tag_35\n      jump\t// in\n    tag_34:\n      mload(0x40)\n      dup1\n      swap2\n      sub\n      swap1\n      return\n        /* \"contructs/patientserial.sol\":901:927  uint public patientCount=0 */\n    tag_8:\n      tag_36\n      tag_37\n      jump\t// in\n    tag_36:\n      mload(0x40)\n      tag_38\n      swap2\n      swap1\n      tag_30\n      jump\t// in\n    tag_38:\n      mload(0x40)\n      dup1\n      swap2\n      sub\n      swap1\n      return\n        /* \"contructs/patientserial.sol\":966:991  uint public serialCount=0 */\n    tag_9:\n      tag_39\n      tag_40\n      jump\t// in\n    tag_39:\n      mload(0x40)\n      tag_41\n      swap2\n      swap1\n      tag_30\n      jump\t// in\n    tag_41:\n      mload(0x40)\n      dup1\n      swap2\n      sub\n      swap1\n      return\n        /* \"contructs/patientserial.sol\":930:963  uint public specialPatientCount=0 */\n    tag_10:\n      tag_42\n      tag_43\n      jump\t// in\n    tag_42:\n      mload(0x40)\n      tag_44\n      swap2\n      swap1\n      tag_30\n      jump\t// in\n    tag_44:\n      mload(0x40)\n      dup1\n      swap2\n      sub\n      swap1\n      return\n        /* \"contructs/patientserial.sol\":2060:2911  function addSerial(uint _date,string memory  _name,uint _age,string memory _syndrome,uint _roomNo, uint _doctorId,bool _paymentStatus,bool _special) public doctorExistency(_doctorId) doctorAvailablity(_doctorId)... */\n    tag_15:\n        /* \"contructs/patientserial.sol\":2232:2241  _doctorId */\n      dup3\n        /* \"contructs/patientserial.sol\":1238:1249  doctorCount */\n      sload(0x05)\n        /* \"contructs/patientserial.sol\":1209:1216  doctors */\n      0x00\n        /* \"contructs/patientserial.sol\":1209:1227  doctors[_doctorId] */\n      dup1\n        /* \"contructs/patientserial.sol\":1217:1226  _doctorId */\n      dup4\n        /* \"contructs/patientserial.sol\":1209:1227  doctors[_doctorId] */\n      dup2\n      mstore\n      0x20\n      add\n      swap1\n      dup2\n      mstore\n      0x20\n      add\n      0x00\n      keccak256\n        /* \"contructs/patientserial.sol\":1209:1236  doctors[_doctorId].doctorId */\n      0x00\n      add\n      sload\n        /* \"contructs/patientserial.sol\":1209:1249  doctors[_doctorId].doctorId<=doctorCount */\n      gt\n      iszero\n        /* \"contructs/patientserial.sol\":1209:1265  doctors[_doctorId].doctorId<=doctorCount && _doctorId!=0 */\n      dup1\n      iszero\n      tag_46\n      jumpi\n      pop\n        /* \"contructs/patientserial.sol\":1264:1265  0 */\n      0x00\n        /* \"contructs/patientserial.sol\":1253:1262  _doctorId */\n      dup2\n        /* \"contructs/patientserial.sol\":1253:1265  _doctorId!=0 */\n      eq\n      iszero\n        /* \"contructs/patientserial.sol\":1209:1265  doctors[_doctorId].doctorId<=doctorCount && _doctorId!=0 */\n    tag_46:\n        /* \"contructs/patientserial.sol\":1201:1287  require(doctors[_doctorId].doctorId<=doctorCount && _doctorId!=0,\"Doctor Id is wrong\") */\n      tag_47\n      jumpi\n      mload(0x40)\n      0x08c379a000000000000000000000000000000000000000000000000000000000\n      dup2\n      mstore\n      0x04\n      add\n      tag_48\n      swap1\n      tag_49\n      jump\t// in\n    tag_48:\n      mload(0x40)\n      dup1\n      swap2\n      sub\n      swap1\n      revert\n    tag_47:\n        /* \"contructs/patientserial.sol\":2261:2270  _doctorId */\n      dup4\n        /* \"contructs/patientserial.sol\":1089:1104  block.timestamp */\n      timestamp\n        /* \"contructs/patientserial.sol\":1055:1062  doctors */\n      0x00\n        /* \"contructs/patientserial.sol\":1055:1073  doctors[_doctorId] */\n      dup1\n        /* \"contructs/patientserial.sol\":1063:1072  _doctorId */\n      dup4\n        /* \"contructs/patientserial.sol\":1055:1073  doctors[_doctorId] */\n      dup2\n      mstore\n      0x20\n      add\n      swap1\n      dup2\n      mstore\n      0x20\n      add\n      0x00\n      keccak256\n        /* \"contructs/patientserial.sol\":1055:1085  doctors[_doctorId].dutyEndTime */\n      0x05\n      add\n      sload\n        /* \"contructs/patientserial.sol\":1055:1104  doctors[_doctorId].dutyEndTime >= block.timestamp */\n      lt\n      iszero\n        /* \"contructs/patientserial.sol\":1047:1138  require(doctors[_doctorId].dutyEndTime >= block.timestamp,\"Doctor's dity time is finished\") */\n      tag_51\n      jumpi\n      mload(0x40)\n      0x08c379a000000000000000000000000000000000000000000000000000000000\n      dup2\n      mstore\n      0x04\n      add\n      tag_52\n      swap1\n      tag_53\n      jump\t// in\n    tag_52:\n      mload(0x40)\n      dup1\n      swap2\n      sub\n      swap1\n      revert\n    tag_51:\n        /* \"contructs/patientserial.sol\":2280:2303  Patient storage patient */\n      0x00\n        /* \"contructs/patientserial.sol\":2306:2314  patients */\n      0x01\n        /* \"contructs/patientserial.sol\":2306:2330  patients[++patientCount] */\n      0x00\n        /* \"contructs/patientserial.sol\":2317:2329  patientCount */\n      0x06\n      0x00\n        /* \"contructs/patientserial.sol\":2315:2329  ++patientCount */\n      dup2\n      sload\n      tag_55\n      swap1\n      tag_56\n      jump\t// in\n    tag_55:\n      swap2\n      swap1\n      pop\n      dup2\n      swap1\n      sstore\n        /* \"contructs/patientserial.sol\":2306:2330  patients[++patientCount] */\n      dup2\n      mstore\n      0x20\n      add\n      swap1\n      dup2\n      mstore\n      0x20\n      add\n      0x00\n      keccak256\n        /* \"contructs/patientserial.sol\":2280:2330  Patient storage patient = patients[++patientCount] */\n      swap1\n      pop\n        /* \"contructs/patientserial.sol\":2369:2374  _date */\n      dup11\n        /* \"contructs/patientserial.sol\":2353:2368  block.timestamp */\n      timestamp\n        /* \"contructs/patientserial.sol\":2353:2374  block.timestamp+_date */\n      tag_57\n      swap2\n      swap1\n      tag_58\n      jump\t// in\n    tag_57:\n        /* \"contructs/patientserial.sol\":2339:2346  patient */\n      dup2\n        /* \"contructs/patientserial.sol\":2339:2351  patient.Date */\n      0x00\n      add\n        /* \"contructs/patientserial.sol\":2339:2374  patient.Date= block.timestamp+_date */\n      dup2\n      swap1\n      sstore\n      pop\n        /* \"contructs/patientserial.sol\":2401:2413  patientCount */\n      sload(0x06)\n        /* \"contructs/patientserial.sol\":2381:2388  patient */\n      dup2\n        /* \"contructs/patientserial.sol\":2381:2398  patient.patientId */\n      0x01\n      add\n        /* \"contructs/patientserial.sol\":2381:2413  patient.patientId = patientCount */\n      dup2\n      swap1\n      sstore\n      pop\n        /* \"contructs/patientserial.sol\":2434:2439  _name */\n      dup10\n        /* \"contructs/patientserial.sol\":2420:2427  patient */\n      dup2\n        /* \"contructs/patientserial.sol\":2420:2432  patient.name */\n      0x02\n      add\n        /* \"contructs/patientserial.sol\":2420:2439  patient.name= _name */\n      swap1\n      dup2\n      tag_59\n      swap2\n      swap1\n      tag_60\n      jump\t// in\n    tag_59:\n      pop\n        /* \"contructs/patientserial.sol\":2458:2462  _age */\n      dup9\n        /* \"contructs/patientserial.sol\":2446:2453  patient */\n      dup2\n        /* \"contructs/patientserial.sol\":2446:2457  patient.age */\n      0x03\n      add\n        /* \"contructs/patientserial.sol\":2446:2462  patient.age=_age */\n      dup2\n      swap1\n      sstore\n      pop\n        /* \"contructs/patientserial.sol\":2486:2495  _syndrome */\n      dup8\n        /* \"contructs/patientserial.sol\":2469:2476  patient */\n      dup2\n        /* \"contructs/patientserial.sol\":2469:2485  patient.syndrome */\n      0x04\n      add\n        /* \"contructs/patientserial.sol\":2469:2495  patient.syndrome=_syndrome */\n      swap1\n      dup2\n      tag_61\n      swap2\n      swap1\n      tag_60\n      jump\t// in\n    tag_61:\n      pop\n        /* \"contructs/patientserial.sol\":2521:2532  serialCount */\n      0x08\n      0x00\n        /* \"contructs/patientserial.sol\":2519:2532  ++serialCount */\n      dup2\n      sload\n      tag_62\n      swap1\n      tag_56\n      jump\t// in\n    tag_62:\n      swap2\n      swap1\n      pop\n      dup2\n      swap1\n      sstore\n        /* \"contructs/patientserial.sol\":2502:2509  patient */\n      dup2\n        /* \"contructs/patientserial.sol\":2502:2518  patient.serialNo */\n      0x05\n      add\n        /* \"contructs/patientserial.sol\":2502:2532  patient.serialNo=++serialCount */\n      dup2\n      swap1\n      sstore\n      pop\n        /* \"contructs/patientserial.sol\":2554:2561  _roomNo */\n      dup7\n        /* \"contructs/patientserial.sol\":2539:2546  patient */\n      dup2\n        /* \"contructs/patientserial.sol\":2539:2553  patient.roomNo */\n      0x06\n      add\n        /* \"contructs/patientserial.sol\":2539:2561  patient.roomNo=_roomNo */\n      dup2\n      swap1\n      sstore\n      pop\n        /* \"contructs/patientserial.sol\":2585:2594  _doctorId */\n      dup6\n        /* \"contructs/patientserial.sol\":2568:2575  patient */\n      dup2\n        /* \"contructs/patientserial.sol\":2568:2584  patient.doctorId */\n      0x07\n      add\n        /* \"contructs/patientserial.sol\":2568:2594  patient.doctorId=_doctorId */\n      dup2\n      swap1\n      sstore\n      pop\n        /* \"contructs/patientserial.sol\":2623:2637  _paymentStatus */\n      dup5\n        /* \"contructs/patientserial.sol\":2601:2608  patient */\n      dup2\n        /* \"contructs/patientserial.sol\":2601:2622  patient.paymentStatus */\n      0x08\n      add\n      0x00\n        /* \"contructs/patientserial.sol\":2601:2637  patient.paymentStatus=_paymentStatus */\n      0x0100\n      exp\n      dup2\n      sload\n      dup2\n      0xff\n      mul\n      not\n      and\n      swap1\n      dup4\n      iszero\n      iszero\n      mul\n      or\n      swap1\n      sstore\n      pop\n        /* \"contructs/patientserial.sol\":2660:2668  _special */\n      dup4\n        /* \"contructs/patientserial.sol\":2644:2651  patient */\n      dup2\n        /* \"contructs/patientserial.sol\":2644:2659  patient.special */\n      0x08\n      add\n      0x01\n        /* \"contructs/patientserial.sol\":2644:2668  patient.special=_special */\n      0x0100\n      exp\n      dup2\n      sload\n      dup2\n      0xff\n      mul\n      not\n      and\n      swap1\n      dup4\n      iszero\n      iszero\n      mul\n      or\n      swap1\n      sstore\n      pop\n        /* \"contructs/patientserial.sol\":2690:2695  false */\n      0x00\n        /* \"contructs/patientserial.sol\":2675:2682  patient */\n      dup2\n        /* \"contructs/patientserial.sol\":2675:2689  patient.sarved */\n      0x08\n      add\n      0x02\n        /* \"contructs/patientserial.sol\":2675:2695  patient.sarved=false */\n      0x0100\n      exp\n      dup2\n      sload\n      dup2\n      0xff\n      mul\n      not\n      and\n      swap1\n      dup4\n      iszero\n      iszero\n      mul\n      or\n      swap1\n      sstore\n      pop\n        /* \"contructs/patientserial.sol\":2709:2905  addpatient(patient.Date, patient.patientId, patient.name, patient.age, patient.syndrome, patient.serialNo, patient.roomNo, patient.doctorId, patient.paymentStatus, patient.special, patient.sarved) */\n      0x38228b678551390c21fb8c2c678e7211eecee3bc1166504e3b41fb2eb18c9151\n        /* \"contructs/patientserial.sol\":2720:2727  patient */\n      dup2\n        /* \"contructs/patientserial.sol\":2720:2732  patient.Date */\n      0x00\n      add\n      sload\n        /* \"contructs/patientserial.sol\":2734:2741  patient */\n      dup3\n        /* \"contructs/patientserial.sol\":2734:2751  patient.patientId */\n      0x01\n      add\n      sload\n        /* \"contructs/patientserial.sol\":2753:2760  patient */\n      dup4\n        /* \"contructs/patientserial.sol\":2753:2765  patient.name */\n      0x02\n      add\n        /* \"contructs/patientserial.sol\":2767:2774  patient */\n      dup5\n        /* \"contructs/patientserial.sol\":2767:2778  patient.age */\n      0x03\n      add\n      sload\n        /* \"contructs/patientserial.sol\":2780:2787  patient */\n      dup6\n        /* \"contructs/patientserial.sol\":2780:2796  patient.syndrome */\n      0x04\n      add\n        /* \"contructs/patientserial.sol\":2798:2805  patient */\n      dup7\n        /* \"contructs/patientserial.sol\":2798:2814  patient.serialNo */\n      0x05\n      add\n      sload\n        /* \"contructs/patientserial.sol\":2816:2823  patient */\n      dup8\n        /* \"contructs/patientserial.sol\":2816:2830  patient.roomNo */\n      0x06\n      add\n      sload\n        /* \"contructs/patientserial.sol\":2832:2839  patient */\n      dup9\n        /* \"contructs/patientserial.sol\":2832:2848  patient.doctorId */\n      0x07\n      add\n      sload\n        /* \"contructs/patientserial.sol\":2850:2857  patient */\n      dup10\n        /* \"contructs/patientserial.sol\":2850:2871  patient.paymentStatus */\n      0x08\n      add\n      0x00\n      swap1\n      sload\n      swap1\n      0x0100\n      exp\n      swap1\n      div\n      0xff\n      and\n        /* \"contructs/patientserial.sol\":2873:2880  patient */\n      dup11\n        /* \"contructs/patientserial.sol\":2873:2888  patient.special */\n      0x08\n      add\n      0x01\n      swap1\n      sload\n      swap1\n      0x0100\n      exp\n      swap1\n      div\n      0xff\n      and\n        /* \"contructs/patientserial.sol\":2890:2897  patient */\n      dup12\n        /* \"contructs/patientserial.sol\":2890:2904  patient.sarved */\n      0x08\n      add\n      0x02\n      swap1\n      sload\n      swap1\n      0x0100\n      exp\n      swap1\n      div\n      0xff\n      and\n        /* \"contructs/patientserial.sol\":2709:2905  addpatient(patient.Date, patient.patientId, patient.name, patient.age, patient.syndrome, patient.serialNo, patient.roomNo, patient.doctorId, patient.paymentStatus, patient.special, patient.sarved) */\n      mload(0x40)\n      tag_63\n      swap12\n      swap11\n      swap10\n      swap9\n      swap8\n      swap7\n      swap6\n      swap5\n      swap4\n      swap3\n      swap2\n      swap1\n      tag_64\n      jump\t// in\n    tag_63:\n      mload(0x40)\n      dup1\n      swap2\n      sub\n      swap1\n      log1\n        /* \"contructs/patientserial.sol\":2273:2911  {... */\n      pop\n        /* \"contructs/patientserial.sol\":1294:1295  _ */\n      pop\n        /* \"contructs/patientserial.sol\":2060:2911  function addSerial(uint _date,string memory  _name,uint _age,string memory _syndrome,uint _roomNo, uint _doctorId,bool _paymentStatus,bool _special) public doctorExistency(_doctorId) doctorAvailablity(_doctorId)... */\n      pop\n      pop\n      pop\n      pop\n      pop\n      pop\n      pop\n      pop\n      pop\n      jump\t// out\n        /* \"contructs/patientserial.sol\":798:842  mapping(uint =>Serial) public PatientsSerial */\n    tag_19:\n      mstore(0x20, 0x02)\n      dup1\n      0x00\n      mstore\n      keccak256(0x00, 0x40)\n      0x00\n      swap2\n      pop\n      swap1\n      pop\n      dup1\n      0x00\n      add\n      sload\n      swap1\n      dup1\n      0x01\n      add\n      sload\n      swap1\n      dup1\n      0x02\n      add\n      0x00\n      swap1\n      sload\n      swap1\n      0x0100\n      exp\n      swap1\n      div\n      0xff\n      and\n      swap1\n      pop\n      dup4\n      jump\t// out\n        /* \"contructs/patientserial.sol\":715:752  mapping(uint =>Doctor) public doctors */\n    tag_24:\n      mstore(0x20, 0x00)\n      dup1\n      0x00\n      mstore\n      keccak256(0x00, 0x40)\n      0x00\n      swap2\n      pop\n      swap1\n      pop\n      dup1\n      0x00\n      add\n      sload\n      swap1\n      dup1\n      0x01\n      add\n      dup1\n      sload\n      tag_65\n      swap1\n      tag_66\n      jump\t// in\n    tag_65:\n      dup1\n      0x1f\n      add\n      0x20\n      dup1\n      swap2\n      div\n      mul\n      0x20\n      add\n      mload(0x40)\n      swap1\n      dup2\n      add\n      0x40\n      mstore\n      dup1\n      swap3\n      swap2\n      swap1\n      dup2\n      dup2\n      mstore\n      0x20\n      add\n      dup3\n      dup1\n      sload\n      tag_67\n      swap1\n      tag_66\n      jump\t// in\n    tag_67:\n      dup1\n      iszero\n      tag_68\n      jumpi\n      dup1\n      0x1f\n      lt\n      tag_69\n      jumpi\n      0x0100\n      dup1\n      dup4\n      sload\n      div\n      mul\n      dup4\n      mstore\n      swap2\n      0x20\n      add\n      swap2\n      jump(tag_68)\n    tag_69:\n      dup3\n      add\n      swap2\n      swap1\n      0x00\n      mstore\n      keccak256(0x00, 0x20)\n      swap1\n    tag_70:\n      dup2\n      sload\n      dup2\n      mstore\n      swap1\n      0x01\n      add\n      swap1\n      0x20\n      add\n      dup1\n      dup4\n      gt\n      tag_70\n      jumpi\n      dup3\n      swap1\n      sub\n      0x1f\n      and\n      dup3\n      add\n      swap2\n    tag_68:\n      pop\n      pop\n      pop\n      pop\n      pop\n      swap1\n      dup1\n      0x02\n      add\n      dup1\n      sload\n      tag_71\n      swap1\n      tag_66\n      jump\t// in\n    tag_71:\n      dup1\n      0x1f\n      add\n      0x20\n      dup1\n      swap2\n      div\n      mul\n      0x20\n      add\n      mload(0x40)\n      swap1\n      dup2\n      add\n      0x40\n      mstore\n      dup1\n      swap3\n      swap2\n      swap1\n      dup2\n      dup2\n      mstore\n      0x20\n      add\n      dup3\n      dup1\n      sload\n      tag_72\n      swap1\n      tag_66\n      jump\t// in\n    tag_72:\n      dup1\n      iszero\n      tag_73\n      jumpi\n      dup1\n      0x1f\n      lt\n      tag_74\n      jumpi\n      0x0100\n      dup1\n      dup4\n      sload\n      div\n      mul\n      dup4\n      mstore\n      swap2\n      0x20\n      add\n      swap2\n      jump(tag_73)\n    tag_74:\n      dup3\n      add\n      swap2\n      swap1\n      0x00\n      mstore\n      keccak256(0x00, 0x20)\n      swap1\n    tag_75:\n      dup2\n      sload\n      dup2\n      mstore\n      swap1\n      0x01\n      add\n      swap1\n      0x20\n      add\n      dup1\n      dup4\n      gt\n      tag_75\n      jumpi\n      dup3\n      swap1\n      sub\n      0x1f\n      and\n      dup3\n      add\n      swap2\n    tag_73:\n      pop\n      pop\n      pop\n      pop\n      pop\n      swap1\n      dup1\n      0x03\n      add\n      dup1\n      sload\n      tag_76\n      swap1\n      tag_66\n      jump\t// in\n    tag_76:\n      dup1\n      0x1f\n      add\n      0x20\n      dup1\n      swap2\n      div\n      mul\n      0x20\n      add\n      mload(0x40)\n      swap1\n      dup2\n      add\n      0x40\n      mstore\n      dup1\n      swap3\n      swap2\n      swap1\n      dup2\n      dup2\n      mstore\n      0x20\n      add\n      dup3\n      dup1\n      sload\n      tag_77\n      swap1\n      tag_66\n      jump\t// in\n    tag_77:\n      dup1\n      iszero\n      tag_78\n      jumpi\n      dup1\n      0x1f\n      lt\n      tag_79\n      jumpi\n      0x0100\n      dup1\n      dup4\n      sload\n      div\n      mul\n      dup4\n      mstore\n      swap2\n      0x20\n      add\n      swap2\n      jump(tag_78)\n    tag_79:\n      dup3\n      add\n      swap2\n      swap1\n      0x00\n      mstore\n      keccak256(0x00, 0x20)\n      swap1\n    tag_80:\n      dup2\n      sload\n      dup2\n      mstore\n      swap1\n      0x01\n      add\n      swap1\n      0x20\n      add\n      dup1\n      dup4\n      gt\n      tag_80\n      jumpi\n      dup3\n      swap1\n      sub\n      0x1f\n      and\n      dup3\n      add\n      swap2\n    tag_78:\n      pop\n      pop\n      pop\n      pop\n      pop\n      swap1\n      dup1\n      0x04\n      add\n      sload\n      swap1\n      dup1\n      0x05\n      add\n      sload\n      swap1\n      dup1\n      0x06\n      add\n      0x00\n      swap1\n      sload\n      swap1\n      0x0100\n      exp\n      swap1\n      div\n      0xff\n      and\n      swap1\n      dup1\n      0x07\n      add\n      sload\n      swap1\n      pop\n      dup9\n      jump\t// out\n        /* \"contructs/patientserial.sol\":873:898  uint public doctorCount=0 */\n    tag_28:\n      sload(0x05)\n      dup2\n      jump\t// out\n        /* \"contructs/patientserial.sol\":755:795  mapping(uint => Patient) public patients */\n    tag_33:\n      mstore(0x20, 0x01)\n      dup1\n      0x00\n      mstore\n      keccak256(0x00, 0x40)\n      0x00\n      swap2\n      pop\n      swap1\n      pop\n      dup1\n      0x00\n      add\n      sload\n      swap1\n      dup1\n      0x01\n      add\n      sload\n      swap1\n      dup1\n      0x02\n      add\n      dup1\n      sload\n      tag_81\n      swap1\n      tag_66\n      jump\t// in\n    tag_81:\n      dup1\n      0x1f\n      add\n      0x20\n      dup1\n      swap2\n      div\n      mul\n      0x20\n      add\n      mload(0x40)\n      swap1\n      dup2\n      add\n      0x40\n      mstore\n      dup1\n      swap3\n      swap2\n      swap1\n      dup2\n      dup2\n      mstore\n      0x20\n      add\n      dup3\n      dup1\n      sload\n      tag_82\n      swap1\n      tag_66\n      jump\t// in\n    tag_82:\n      dup1\n      iszero\n      tag_83\n      jumpi\n      dup1\n      0x1f\n      lt\n      tag_84\n      jumpi\n      0x0100\n      dup1\n      dup4\n      sload\n      div\n      mul\n      dup4\n      mstore\n      swap2\n      0x20\n      add\n      swap2\n      jump(tag_83)\n    tag_84:\n      dup3\n      add\n      swap2\n      swap1\n      0x00\n      mstore\n      keccak256(0x00, 0x20)\n      swap1\n    tag_85:\n      dup2\n      sload\n      dup2\n      mstore\n      swap1\n      0x01\n      add\n      swap1\n      0x20\n      add\n      dup1\n      dup4\n      gt\n      tag_85\n      jumpi\n      dup3\n      swap1\n      sub\n      0x1f\n      and\n      dup3\n      add\n      swap2\n    tag_83:\n      pop\n      pop\n      pop\n      pop\n      pop\n      swap1\n      dup1\n      0x03\n      add\n      sload\n      swap1\n      dup1\n      0x04\n      add\n      dup1\n      sload\n      tag_86\n      swap1\n      tag_66\n      jump\t// in\n    tag_86:\n      dup1\n      0x1f\n      add\n      0x20\n      dup1\n      swap2\n      div\n      mul\n      0x20\n      add\n      mload(0x40)\n      swap1\n      dup2\n      add\n      0x40\n      mstore\n      dup1\n      swap3\n      swap2\n      swap1\n      dup2\n      dup2\n      mstore\n      0x20\n      add\n      dup3\n      dup1\n      sload\n      tag_87\n      swap1\n      tag_66\n      jump\t// in\n    tag_87:\n      dup1\n      iszero\n      tag_88\n      jumpi\n      dup1\n      0x1f\n      lt\n      tag_89\n      jumpi\n      0x0100\n      dup1\n      dup4\n      sload\n      div\n      mul\n      dup4\n      mstore\n      swap2\n      0x20\n      add\n      swap2\n      jump(tag_88)\n    tag_89:\n      dup3\n      add\n      swap2\n      swap1\n      0x00\n      mstore\n      keccak256(0x00, 0x20)\n      swap1\n    tag_90:\n      dup2\n      sload\n      dup2\n      mstore\n      swap1\n      0x01\n      add\n      swap1\n      0x20\n      add\n      dup1\n      dup4\n      gt\n      tag_90\n      jumpi\n      dup3\n      swap1\n      sub\n      0x1f\n      and\n      dup3\n      add\n      swap2\n    tag_88:\n      pop\n      pop\n      pop\n      pop\n      pop\n      swap1\n      dup1\n      0x05\n      add\n      sload\n      swap1\n      dup1\n      0x06\n      add\n      sload\n      swap1\n      dup1\n      0x07\n      add\n      sload\n      swap1\n      dup1\n      0x08\n      add\n      0x00\n      swap1\n      sload\n      swap1\n      0x0100\n      exp\n      swap1\n      div\n      0xff\n      and\n      swap1\n      dup1\n      0x08\n      add\n      0x01\n      swap1\n      sload\n      swap1\n      0x0100\n      exp\n      swap1\n      div\n      0xff\n      and\n      swap1\n      dup1\n      0x08\n      add\n      0x02\n      swap1\n      sload\n      swap1\n      0x0100\n      exp\n      swap1\n      div\n      0xff\n      and\n      swap1\n      pop\n      dup12\n      jump\t// out\n        /* \"contructs/patientserial.sol\":901:927  uint public patientCount=0 */\n    tag_37:\n      sload(0x06)\n      dup2\n      jump\t// out\n        /* \"contructs/patientserial.sol\":966:991  uint public serialCount=0 */\n    tag_40:\n      sload(0x08)\n      dup2\n      jump\t// out\n        /* \"contructs/patientserial.sol\":930:963  uint public specialPatientCount=0 */\n    tag_43:\n      sload(0x07)\n      dup2\n      jump\t// out\n        /* \"#utility.yul\":7:82   */\n    tag_91:\n        /* \"#utility.yul\":40:46   */\n      0x00\n        /* \"#utility.yul\":73:75   */\n      0x40\n        /* \"#utility.yul\":67:76   */\n      mload\n        /* \"#utility.yul\":57:76   */\n      swap1\n      pop\n        /* \"#utility.yul\":7:82   */\n      swap1\n      jump\t// out\n        /* \"#utility.yul\":88:205   */\n    tag_92:\n        /* \"#utility.yul\":197:198   */\n      0x00\n        /* \"#utility.yul\":194:195   */\n      dup1\n        /* \"#utility.yul\":187:199   */\n      revert\n        /* \"#utility.yul\":211:328   */\n    tag_93:\n        /* \"#utility.yul\":320:321   */\n      0x00\n        /* \"#utility.yul\":317:318   */\n      dup1\n        /* \"#utility.yul\":310:322   */\n      revert\n        /* \"#utility.yul\":334:411   */\n    tag_94:\n        /* \"#utility.yul\":371:378   */\n      0x00\n        /* \"#utility.yul\":400:405   */\n      dup2\n        /* \"#utility.yul\":389:405   */\n      swap1\n      pop\n        /* \"#utility.yul\":334:411   */\n      swap2\n      swap1\n      pop\n      jump\t// out\n        /* \"#utility.yul\":417:539   */\n    tag_95:\n        /* \"#utility.yul\":490:514   */\n      tag_144\n        /* \"#utility.yul\":508:513   */\n      dup2\n        /* \"#utility.yul\":490:514   */\n      tag_94\n      jump\t// in\n    tag_144:\n        /* \"#utility.yul\":483:488   */\n      dup2\n        /* \"#utility.yul\":480:515   */\n      eq\n        /* \"#utility.yul\":470:533   */\n      tag_145\n      jumpi\n        /* \"#utility.yul\":529:530   */\n      0x00\n        /* \"#utility.yul\":526:527   */\n      dup1\n        /* \"#utility.yul\":519:531   */\n      revert\n        /* \"#utility.yul\":470:533   */\n    tag_145:\n        /* \"#utility.yul\":417:539   */\n      pop\n      jump\t// out\n        /* \"#utility.yul\":545:684   */\n    tag_96:\n        /* \"#utility.yul\":591:596   */\n      0x00\n        /* \"#utility.yul\":629:635   */\n      dup2\n        /* \"#utility.yul\":616:636   */\n      calldataload\n        /* \"#utility.yul\":607:636   */\n      swap1\n      pop\n        /* \"#utility.yul\":645:678   */\n      tag_147\n        /* \"#utility.yul\":672:677   */\n      dup2\n        /* \"#utility.yul\":645:678   */\n      tag_95\n      jump\t// in\n    tag_147:\n        /* \"#utility.yul\":545:684   */\n      swap3\n      swap2\n      pop\n      pop\n      jump\t// out\n        /* \"#utility.yul\":690:807   */\n    tag_97:\n        /* \"#utility.yul\":799:800   */\n      0x00\n        /* \"#utility.yul\":796:797   */\n      dup1\n        /* \"#utility.yul\":789:801   */\n      revert\n        /* \"#utility.yul\":813:930   */\n    tag_98:\n        /* \"#utility.yul\":922:923   */\n      0x00\n        /* \"#utility.yul\":919:920   */\n      dup1\n        /* \"#utility.yul\":912:924   */\n      revert\n        /* \"#utility.yul\":936:1038   */\n    tag_99:\n        /* \"#utility.yul\":977:983   */\n      0x00\n        /* \"#utility.yul\":1028:1030   */\n      0x1f\n        /* \"#utility.yul\":1024:1031   */\n      not\n        /* \"#utility.yul\":1019:1021   */\n      0x1f\n        /* \"#utility.yul\":1012:1017   */\n      dup4\n        /* \"#utility.yul\":1008:1022   */\n      add\n        /* \"#utility.yul\":1004:1032   */\n      and\n        /* \"#utility.yul\":994:1032   */\n      swap1\n      pop\n        /* \"#utility.yul\":936:1038   */\n      swap2\n      swap1\n      pop\n      jump\t// out\n        /* \"#utility.yul\":1044:1224   */\n    tag_100:\n        /* \"#utility.yul\":1092:1169   */\n      0x4e487b7100000000000000000000000000000000000000000000000000000000\n        /* \"#utility.yul\":1089:1090   */\n      0x00\n        /* \"#utility.yul\":1082:1170   */\n      mstore\n        /* \"#utility.yul\":1189:1193   */\n      0x41\n        /* \"#utility.yul\":1186:1187   */\n      0x04\n        /* \"#utility.yul\":1179:1194   */\n      mstore\n        /* \"#utility.yul\":1213:1217   */\n      0x24\n        /* \"#utility.yul\":1210:1211   */\n      0x00\n        /* \"#utility.yul\":1203:1218   */\n      revert\n        /* \"#utility.yul\":1230:1511   */\n    tag_101:\n        /* \"#utility.yul\":1313:1340   */\n      tag_153\n        /* \"#utility.yul\":1335:1339   */\n      dup3\n        /* \"#utility.yul\":1313:1340   */\n      tag_99\n      jump\t// in\n    tag_153:\n        /* \"#utility.yul\":1305:1311   */\n      dup2\n        /* \"#utility.yul\":1301:1341   */\n      add\n        /* \"#utility.yul\":1443:1449   */\n      dup2\n        /* \"#utility.yul\":1431:1441   */\n      dup2\n        /* \"#utility.yul\":1428:1450   */\n      lt\n        /* \"#utility.yul\":1407:1425   */\n      0xffffffffffffffff\n        /* \"#utility.yul\":1395:1405   */\n      dup3\n        /* \"#utility.yul\":1392:1426   */\n      gt\n        /* \"#utility.yul\":1389:1451   */\n      or\n        /* \"#utility.yul\":1386:1474   */\n      iszero\n      tag_154\n      jumpi\n        /* \"#utility.yul\":1454:1472   */\n      tag_155\n      tag_100\n      jump\t// in\n    tag_155:\n        /* \"#utility.yul\":1386:1474   */\n    tag_154:\n        /* \"#utility.yul\":1494:1504   */\n      dup1\n        /* \"#utility.yul\":1490:1492   */\n      0x40\n        /* \"#utility.yul\":1483:1505   */\n      mstore\n        /* \"#utility.yul\":1273:1511   */\n      pop\n        /* \"#utility.yul\":1230:1511   */\n      pop\n      pop\n      jump\t// out\n        /* \"#utility.yul\":1517:1646   */\n    tag_102:\n        /* \"#utility.yul\":1551:1557   */\n      0x00\n        /* \"#utility.yul\":1578:1598   */\n      tag_157\n      tag_91\n      jump\t// in\n    tag_157:\n        /* \"#utility.yul\":1568:1598   */\n      swap1\n      pop\n        /* \"#utility.yul\":1607:1640   */\n      tag_158\n        /* \"#utility.yul\":1635:1639   */\n      dup3\n        /* \"#utility.yul\":1627:1633   */\n      dup3\n        /* \"#utility.yul\":1607:1640   */\n      tag_101\n      jump\t// in\n    tag_158:\n        /* \"#utility.yul\":1517:1646   */\n      swap2\n      swap1\n      pop\n      jump\t// out\n        /* \"#utility.yul\":1652:1960   */\n    tag_103:\n        /* \"#utility.yul\":1714:1718   */\n      0x00\n        /* \"#utility.yul\":1804:1822   */\n      0xffffffffffffffff\n        /* \"#utility.yul\":1796:1802   */\n      dup3\n        /* \"#utility.yul\":1793:1823   */\n      gt\n        /* \"#utility.yul\":1790:1846   */\n      iszero\n      tag_160\n      jumpi\n        /* \"#utility.yul\":1826:1844   */\n      tag_161\n      tag_100\n      jump\t// in\n    tag_161:\n        /* \"#utility.yul\":1790:1846   */\n    tag_160:\n        /* \"#utility.yul\":1864:1893   */\n      tag_162\n        /* \"#utility.yul\":1886:1892   */\n      dup3\n        /* \"#utility.yul\":1864:1893   */\n      tag_99\n      jump\t// in\n    tag_162:\n        /* \"#utility.yul\":1856:1893   */\n      swap1\n      pop\n        /* \"#utility.yul\":1948:1952   */\n      0x20\n        /* \"#utility.yul\":1942:1946   */\n      dup2\n        /* \"#utility.yul\":1938:1953   */\n      add\n        /* \"#utility.yul\":1930:1953   */\n      swap1\n      pop\n        /* \"#utility.yul\":1652:1960   */\n      swap2\n      swap1\n      pop\n      jump\t// out\n        /* \"#utility.yul\":1966:2112   */\n    tag_104:\n        /* \"#utility.yul\":2063:2069   */\n      dup3\n        /* \"#utility.yul\":2058:2061   */\n      dup2\n        /* \"#utility.yul\":2053:2056   */\n      dup4\n        /* \"#utility.yul\":2040:2070   */\n      calldatacopy\n        /* \"#utility.yul\":2104:2105   */\n      0x00\n        /* \"#utility.yul\":2095:2101   */\n      dup4\n        /* \"#utility.yul\":2090:2093   */\n      dup4\n        /* \"#utility.yul\":2086:2102   */\n      add\n        /* \"#utility.yul\":2079:2106   */\n      mstore\n        /* \"#utility.yul\":1966:2112   */\n      pop\n      pop\n      pop\n      jump\t// out\n        /* \"#utility.yul\":2118:2543   */\n    tag_105:\n        /* \"#utility.yul\":2196:2201   */\n      0x00\n        /* \"#utility.yul\":2221:2287   */\n      tag_165\n        /* \"#utility.yul\":2237:2286   */\n      tag_166\n        /* \"#utility.yul\":2279:2285   */\n      dup5\n        /* \"#utility.yul\":2237:2286   */\n      tag_103\n      jump\t// in\n    tag_166:\n        /* \"#utility.yul\":2221:2287   */\n      tag_102\n      jump\t// in\n    tag_165:\n        /* \"#utility.yul\":2212:2287   */\n      swap1\n      pop\n        /* \"#utility.yul\":2310:2316   */\n      dup3\n        /* \"#utility.yul\":2303:2308   */\n      dup2\n        /* \"#utility.yul\":2296:2317   */\n      mstore\n        /* \"#utility.yul\":2348:2352   */\n      0x20\n        /* \"#utility.yul\":2341:2346   */\n      dup2\n        /* \"#utility.yul\":2337:2353   */\n      add\n        /* \"#utility.yul\":2386:2389   */\n      dup5\n        /* \"#utility.yul\":2377:2383   */\n      dup5\n        /* \"#utility.yul\":2372:2375   */\n      dup5\n        /* \"#utility.yul\":2368:2384   */\n      add\n        /* \"#utility.yul\":2365:2390   */\n      gt\n        /* \"#utility.yul\":2362:2474   */\n      iszero\n      tag_167\n      jumpi\n        /* \"#utility.yul\":2393:2472   */\n      tag_168\n      tag_98\n      jump\t// in\n    tag_168:\n        /* \"#utility.yul\":2362:2474   */\n    tag_167:\n        /* \"#utility.yul\":2483:2537   */\n      tag_169\n        /* \"#utility.yul\":2530:2536   */\n      dup5\n        /* \"#utility.yul\":2525:2528   */\n      dup3\n        /* \"#utility.yul\":2520:2523   */\n      dup6\n        /* \"#utility.yul\":2483:2537   */\n      tag_104\n      jump\t// in\n    tag_169:\n        /* \"#utility.yul\":2202:2543   */\n      pop\n        /* \"#utility.yul\":2118:2543   */\n      swap4\n      swap3\n      pop\n      pop\n      pop\n      jump\t// out\n        /* \"#utility.yul\":2563:2903   */\n    tag_106:\n        /* \"#utility.yul\":2619:2624   */\n      0x00\n        /* \"#utility.yul\":2668:2671   */\n      dup3\n        /* \"#utility.yul\":2661:2665   */\n      0x1f\n        /* \"#utility.yul\":2653:2659   */\n      dup4\n        /* \"#utility.yul\":2649:2666   */\n      add\n        /* \"#utility.yul\":2645:2672   */\n      slt\n        /* \"#utility.yul\":2635:2757   */\n      tag_171\n      jumpi\n        /* \"#utility.yul\":2676:2755   */\n      tag_172\n      tag_97\n      jump\t// in\n    tag_172:\n        /* \"#utility.yul\":2635:2757   */\n    tag_171:\n        /* \"#utility.yul\":2793:2799   */\n      dup2\n        /* \"#utility.yul\":2780:2800   */\n      calldataload\n        /* \"#utility.yul\":2818:2897   */\n      tag_173\n        /* \"#utility.yul\":2893:2896   */\n      dup5\n        /* \"#utility.yul\":2885:2891   */\n      dup3\n        /* \"#utility.yul\":2878:2882   */\n      0x20\n        /* \"#utility.yul\":2870:2876   */\n      dup7\n        /* \"#utility.yul\":2866:2883   */\n      add\n        /* \"#utility.yul\":2818:2897   */\n      tag_105\n      jump\t// in\n    tag_173:\n        /* \"#utility.yul\":2809:2897   */\n      swap2\n      pop\n        /* \"#utility.yul\":2625:2903   */\n      pop\n        /* \"#utility.yul\":2563:2903   */\n      swap3\n      swap2\n      pop\n      pop\n      jump\t// out\n        /* \"#utility.yul\":2909:2999   */\n    tag_107:\n        /* \"#utility.yul\":2943:2950   */\n      0x00\n        /* \"#utility.yul\":2986:2991   */\n      dup2\n        /* \"#utility.yul\":2979:2992   */\n      iszero\n        /* \"#utility.yul\":2972:2993   */\n      iszero\n        /* \"#utility.yul\":2961:2993   */\n      swap1\n      pop\n        /* \"#utility.yul\":2909:2999   */\n      swap2\n      swap1\n      pop\n      jump\t// out\n        /* \"#utility.yul\":3005:3121   */\n    tag_108:\n        /* \"#utility.yul\":3075:3096   */\n      tag_176\n        /* \"#utility.yul\":3090:3095   */\n      dup2\n        /* \"#utility.yul\":3075:3096   */\n      tag_107\n      jump\t// in\n    tag_176:\n        /* \"#utility.yul\":3068:3073   */\n      dup2\n        /* \"#utility.yul\":3065:3097   */\n      eq\n        /* \"#utility.yul\":3055:3115   */\n      tag_177\n      jumpi\n        /* \"#utility.yul\":3111:3112   */\n      0x00\n        /* \"#utility.yul\":3108:3109   */\n      dup1\n        /* \"#utility.yul\":3101:3113   */\n      revert\n        /* \"#utility.yul\":3055:3115   */\n    tag_177:\n        /* \"#utility.yul\":3005:3121   */\n      pop\n      jump\t// out\n        /* \"#utility.yul\":3127:3260   */\n    tag_109:\n        /* \"#utility.yul\":3170:3175   */\n      0x00\n        /* \"#utility.yul\":3208:3214   */\n      dup2\n        /* \"#utility.yul\":3195:3215   */\n      calldataload\n        /* \"#utility.yul\":3186:3215   */\n      swap1\n      pop\n        /* \"#utility.yul\":3224:3254   */\n      tag_179\n        /* \"#utility.yul\":3248:3253   */\n      dup2\n        /* \"#utility.yul\":3224:3254   */\n      tag_108\n      jump\t// in\n    tag_179:\n        /* \"#utility.yul\":3127:3260   */\n      swap3\n      swap2\n      pop\n      pop\n      jump\t// out\n        /* \"#utility.yul\":3266:4963   */\n    tag_14:\n        /* \"#utility.yul\":3402:3408   */\n      0x00\n        /* \"#utility.yul\":3410:3416   */\n      dup1\n        /* \"#utility.yul\":3418:3424   */\n      0x00\n        /* \"#utility.yul\":3426:3432   */\n      dup1\n        /* \"#utility.yul\":3434:3440   */\n      0x00\n        /* \"#utility.yul\":3442:3448   */\n      dup1\n        /* \"#utility.yul\":3450:3456   */\n      0x00\n        /* \"#utility.yul\":3458:3464   */\n      dup1\n        /* \"#utility.yul\":3507:3510   */\n      0x0100\n        /* \"#utility.yul\":3495:3504   */\n      dup10\n        /* \"#utility.yul\":3486:3493   */\n      dup12\n        /* \"#utility.yul\":3482:3505   */\n      sub\n        /* \"#utility.yul\":3478:3511   */\n      slt\n        /* \"#utility.yul\":3475:3595   */\n      iszero\n      tag_181\n      jumpi\n        /* \"#utility.yul\":3514:3593   */\n      tag_182\n      tag_92\n      jump\t// in\n    tag_182:\n        /* \"#utility.yul\":3475:3595   */\n    tag_181:\n        /* \"#utility.yul\":3634:3635   */\n      0x00\n        /* \"#utility.yul\":3659:3712   */\n      tag_183\n        /* \"#utility.yul\":3704:3711   */\n      dup12\n        /* \"#utility.yul\":3695:3701   */\n      dup3\n        /* \"#utility.yul\":3684:3693   */\n      dup13\n        /* \"#utility.yul\":3680:3702   */\n      add\n        /* \"#utility.yul\":3659:3712   */\n      tag_96\n      jump\t// in\n    tag_183:\n        /* \"#utility.yul\":3649:3712   */\n      swap9\n      pop\n        /* \"#utility.yul\":3605:3722   */\n      pop\n        /* \"#utility.yul\":3789:3791   */\n      0x20\n        /* \"#utility.yul\":3778:3787   */\n      dup10\n        /* \"#utility.yul\":3774:3792   */\n      add\n        /* \"#utility.yul\":3761:3793   */\n      calldataload\n        /* \"#utility.yul\":3820:3838   */\n      0xffffffffffffffff\n        /* \"#utility.yul\":3812:3818   */\n      dup2\n        /* \"#utility.yul\":3809:3839   */\n      gt\n        /* \"#utility.yul\":3806:3923   */\n      iszero\n      tag_184\n      jumpi\n        /* \"#utility.yul\":3842:3921   */\n      tag_185\n      tag_93\n      jump\t// in\n    tag_185:\n        /* \"#utility.yul\":3806:3923   */\n    tag_184:\n        /* \"#utility.yul\":3947:4010   */\n      tag_186\n        /* \"#utility.yul\":4002:4009   */\n      dup12\n        /* \"#utility.yul\":3993:3999   */\n      dup3\n        /* \"#utility.yul\":3982:3991   */\n      dup13\n        /* \"#utility.yul\":3978:4000   */\n      add\n        /* \"#utility.yul\":3947:4010   */\n      tag_106\n      jump\t// in\n    tag_186:\n        /* \"#utility.yul\":3937:4010   */\n      swap8\n      pop\n        /* \"#utility.yul\":3732:4020   */\n      pop\n        /* \"#utility.yul\":4059:4061   */\n      0x40\n        /* \"#utility.yul\":4085:4138   */\n      tag_187\n        /* \"#utility.yul\":4130:4137   */\n      dup12\n        /* \"#utility.yul\":4121:4127   */\n      dup3\n        /* \"#utility.yul\":4110:4119   */\n      dup13\n        /* \"#utility.yul\":4106:4128   */\n      add\n        /* \"#utility.yul\":4085:4138   */\n      tag_96\n      jump\t// in\n    tag_187:\n        /* \"#utility.yul\":4075:4138   */\n      swap7\n      pop\n        /* \"#utility.yul\":4030:4148   */\n      pop\n        /* \"#utility.yul\":4215:4217   */\n      0x60\n        /* \"#utility.yul\":4204:4213   */\n      dup10\n        /* \"#utility.yul\":4200:4218   */\n      add\n        /* \"#utility.yul\":4187:4219   */\n      calldataload\n        /* \"#utility.yul\":4246:4264   */\n      0xffffffffffffffff\n        /* \"#utility.yul\":4238:4244   */\n      dup2\n        /* \"#utility.yul\":4235:4265   */\n      gt\n        /* \"#utility.yul\":4232:4349   */\n      iszero\n      tag_188\n      jumpi\n        /* \"#utility.yul\":4268:4347   */\n      tag_189\n      tag_93\n      jump\t// in\n    tag_189:\n        /* \"#utility.yul\":4232:4349   */\n    tag_188:\n        /* \"#utility.yul\":4373:4436   */\n      tag_190\n        /* \"#utility.yul\":4428:4435   */\n      dup12\n        /* \"#utility.yul\":4419:4425   */\n      dup3\n        /* \"#utility.yul\":4408:4417   */\n      dup13\n        /* \"#utility.yul\":4404:4426   */\n      add\n        /* \"#utility.yul\":4373:4436   */\n      tag_106\n      jump\t// in\n    tag_190:\n        /* \"#utility.yul\":4363:4436   */\n      swap6\n      pop\n        /* \"#utility.yul\":4158:4446   */\n      pop\n        /* \"#utility.yul\":4485:4488   */\n      0x80\n        /* \"#utility.yul\":4512:4565   */\n      tag_191\n        /* \"#utility.yul\":4557:4564   */\n      dup12\n        /* \"#utility.yul\":4548:4554   */\n      dup3\n        /* \"#utility.yul\":4537:4546   */\n      dup13\n        /* \"#utility.yul\":4533:4555   */\n      add\n        /* \"#utility.yul\":4512:4565   */\n      tag_96\n      jump\t// in\n    tag_191:\n        /* \"#utility.yul\":4502:4565   */\n      swap5\n      pop\n        /* \"#utility.yul\":4456:4575   */\n      pop\n        /* \"#utility.yul\":4614:4617   */\n      0xa0\n        /* \"#utility.yul\":4641:4694   */\n      tag_192\n        /* \"#utility.yul\":4686:4693   */\n      dup12\n        /* \"#utility.yul\":4677:4683   */\n      dup3\n        /* \"#utility.yul\":4666:4675   */\n      dup13\n        /* \"#utility.yul\":4662:4684   */\n      add\n        /* \"#utility.yul\":4641:4694   */\n      tag_96\n      jump\t// in\n    tag_192:\n        /* \"#utility.yul\":4631:4694   */\n      swap4\n      pop\n        /* \"#utility.yul\":4585:4704   */\n      pop\n        /* \"#utility.yul\":4743:4746   */\n      0xc0\n        /* \"#utility.yul\":4770:4820   */\n      tag_193\n        /* \"#utility.yul\":4812:4819   */\n      dup12\n        /* \"#utility.yul\":4803:4809   */\n      dup3\n        /* \"#utility.yul\":4792:4801   */\n      dup13\n        /* \"#utility.yul\":4788:4810   */\n      add\n        /* \"#utility.yul\":4770:4820   */\n      tag_109\n      jump\t// in\n    tag_193:\n        /* \"#utility.yul\":4760:4820   */\n      swap3\n      pop\n        /* \"#utility.yul\":4714:4830   */\n      pop\n        /* \"#utility.yul\":4869:4872   */\n      0xe0\n        /* \"#utility.yul\":4896:4946   */\n      tag_194\n        /* \"#utility.yul\":4938:4945   */\n      dup12\n        /* \"#utility.yul\":4929:4935   */\n      dup3\n        /* \"#utility.yul\":4918:4927   */\n      dup13\n        /* \"#utility.yul\":4914:4936   */\n      add\n        /* \"#utility.yul\":4896:4946   */\n      tag_109\n      jump\t// in\n    tag_194:\n        /* \"#utility.yul\":4886:4946   */\n      swap2\n      pop\n        /* \"#utility.yul\":4840:4956   */\n      pop\n        /* \"#utility.yul\":3266:4963   */\n      swap3\n      swap6\n      swap9\n      pop\n      swap3\n      swap6\n      swap9\n      swap1\n      swap4\n      swap7\n      pop\n      jump\t// out\n        /* \"#utility.yul\":4969:5298   */\n    tag_18:\n        /* \"#utility.yul\":5028:5034   */\n      0x00\n        /* \"#utility.yul\":5077:5079   */\n      0x20\n        /* \"#utility.yul\":5065:5074   */\n      dup3\n        /* \"#utility.yul\":5056:5063   */\n      dup5\n        /* \"#utility.yul\":5052:5075   */\n      sub\n        /* \"#utility.yul\":5048:5080   */\n      slt\n        /* \"#utility.yul\":5045:5164   */\n      iszero\n      tag_196\n      jumpi\n        /* \"#utility.yul\":5083:5162   */\n      tag_197\n      tag_92\n      jump\t// in\n    tag_197:\n        /* \"#utility.yul\":5045:5164   */\n    tag_196:\n        /* \"#utility.yul\":5203:5204   */\n      0x00\n        /* \"#utility.yul\":5228:5281   */\n      tag_198\n        /* \"#utility.yul\":5273:5280   */\n      dup5\n        /* \"#utility.yul\":5264:5270   */\n      dup3\n        /* \"#utility.yul\":5253:5262   */\n      dup6\n        /* \"#utility.yul\":5249:5271   */\n      add\n        /* \"#utility.yul\":5228:5281   */\n      tag_96\n      jump\t// in\n    tag_198:\n        /* \"#utility.yul\":5218:5281   */\n      swap2\n      pop\n        /* \"#utility.yul\":5174:5291   */\n      pop\n        /* \"#utility.yul\":4969:5298   */\n      swap3\n      swap2\n      pop\n      pop\n      jump\t// out\n        /* \"#utility.yul\":5304:5422   */\n    tag_110:\n        /* \"#utility.yul\":5391:5415   */\n      tag_200\n        /* \"#utility.yul\":5409:5414   */\n      dup2\n        /* \"#utility.yul\":5391:5415   */\n      tag_94\n      jump\t// in\n    tag_200:\n        /* \"#utility.yul\":5386:5389   */\n      dup3\n        /* \"#utility.yul\":5379:5416   */\n      mstore\n        /* \"#utility.yul\":5304:5422   */\n      pop\n      pop\n      jump\t// out\n        /* \"#utility.yul\":5428:5537   */\n    tag_111:\n        /* \"#utility.yul\":5509:5530   */\n      tag_202\n        /* \"#utility.yul\":5524:5529   */\n      dup2\n        /* \"#utility.yul\":5509:5530   */\n      tag_107\n      jump\t// in\n    tag_202:\n        /* \"#utility.yul\":5504:5507   */\n      dup3\n        /* \"#utility.yul\":5497:5531   */\n      mstore\n        /* \"#utility.yul\":5428:5537   */\n      pop\n      pop\n      jump\t// out\n        /* \"#utility.yul\":5543:5973   */\n    tag_21:\n        /* \"#utility.yul\":5686:5690   */\n      0x00\n        /* \"#utility.yul\":5724:5726   */\n      0x60\n        /* \"#utility.yul\":5713:5722   */\n      dup3\n        /* \"#utility.yul\":5709:5727   */\n      add\n        /* \"#utility.yul\":5701:5727   */\n      swap1\n      pop\n        /* \"#utility.yul\":5737:5808   */\n      tag_204\n        /* \"#utility.yul\":5805:5806   */\n      0x00\n        /* \"#utility.yul\":5794:5803   */\n      dup4\n        /* \"#utility.yul\":5790:5807   */\n      add\n        /* \"#utility.yul\":5781:5787   */\n      dup7\n        /* \"#utility.yul\":5737:5808   */\n      tag_110\n      jump\t// in\n    tag_204:\n        /* \"#utility.yul\":5818:5890   */\n      tag_205\n        /* \"#utility.yul\":5886:5888   */\n      0x20\n        /* \"#utility.yul\":5875:5884   */\n      dup4\n        /* \"#utility.yul\":5871:5889   */\n      add\n        /* \"#utility.yul\":5862:5868   */\n      dup6\n        /* \"#utility.yul\":5818:5890   */\n      tag_110\n      jump\t// in\n    tag_205:\n        /* \"#utility.yul\":5900:5966   */\n      tag_206\n        /* \"#utility.yul\":5962:5964   */\n      0x40\n        /* \"#utility.yul\":5951:5960   */\n      dup4\n        /* \"#utility.yul\":5947:5965   */\n      add\n        /* \"#utility.yul\":5938:5944   */\n      dup5\n        /* \"#utility.yul\":5900:5966   */\n      tag_111\n      jump\t// in\n    tag_206:\n        /* \"#utility.yul\":5543:5973   */\n      swap5\n      swap4\n      pop\n      pop\n      pop\n      pop\n      jump\t// out\n        /* \"#utility.yul\":5979:6078   */\n    tag_112:\n        /* \"#utility.yul\":6031:6037   */\n      0x00\n        /* \"#utility.yul\":6065:6070   */\n      dup2\n        /* \"#utility.yul\":6059:6071   */\n      mload\n        /* \"#utility.yul\":6049:6071   */\n      swap1\n      pop\n        /* \"#utility.yul\":5979:6078   */\n      swap2\n      swap1\n      pop\n      jump\t// out\n        /* \"#utility.yul\":6084:6253   */\n    tag_113:\n        /* \"#utility.yul\":6168:6179   */\n      0x00\n        /* \"#utility.yul\":6202:6208   */\n      dup3\n        /* \"#utility.yul\":6197:6200   */\n      dup3\n        /* \"#utility.yul\":6190:6209   */\n      mstore\n        /* \"#utility.yul\":6242:6246   */\n      0x20\n        /* \"#utility.yul\":6237:6240   */\n      dup3\n        /* \"#utility.yul\":6233:6247   */\n      add\n        /* \"#utility.yul\":6218:6247   */\n      swap1\n      pop\n        /* \"#utility.yul\":6084:6253   */\n      swap3\n      swap2\n      pop\n      pop\n      jump\t// out\n        /* \"#utility.yul\":6259:6505   */\n    tag_114:\n        /* \"#utility.yul\":6340:6341   */\n      0x00\n        /* \"#utility.yul\":6350:6463   */\n    tag_210:\n        /* \"#utility.yul\":6364:6370   */\n      dup4\n        /* \"#utility.yul\":6361:6362   */\n      dup2\n        /* \"#utility.yul\":6358:6371   */\n      lt\n        /* \"#utility.yul\":6350:6463   */\n      iszero\n      tag_212\n      jumpi\n        /* \"#utility.yul\":6449:6450   */\n      dup1\n        /* \"#utility.yul\":6444:6447   */\n      dup3\n        /* \"#utility.yul\":6440:6451   */\n      add\n        /* \"#utility.yul\":6434:6452   */\n      mload\n        /* \"#utility.yul\":6430:6431   */\n      dup2\n        /* \"#utility.yul\":6425:6428   */\n      dup5\n        /* \"#utility.yul\":6421:6432   */\n      add\n        /* \"#utility.yul\":6414:6453   */\n      mstore\n        /* \"#utility.yul\":6386:6388   */\n      0x20\n        /* \"#utility.yul\":6383:6384   */\n      dup2\n        /* \"#utility.yul\":6379:6389   */\n      add\n        /* \"#utility.yul\":6374:6389   */\n      swap1\n      pop\n        /* \"#utility.yul\":6350:6463   */\n      jump(tag_210)\n    tag_212:\n        /* \"#utility.yul\":6497:6498   */\n      0x00\n        /* \"#utility.yul\":6488:6494   */\n      dup5\n        /* \"#utility.yul\":6483:6486   */\n      dup5\n        /* \"#utility.yul\":6479:6495   */\n      add\n        /* \"#utility.yul\":6472:6499   */\n      mstore\n        /* \"#utility.yul\":6321:6505   */\n      pop\n        /* \"#utility.yul\":6259:6505   */\n      pop\n      pop\n      pop\n      jump\t// out\n        /* \"#utility.yul\":6511:6888   */\n    tag_115:\n        /* \"#utility.yul\":6599:6602   */\n      0x00\n        /* \"#utility.yul\":6627:6666   */\n      tag_214\n        /* \"#utility.yul\":6660:6665   */\n      dup3\n        /* \"#utility.yul\":6627:6666   */\n      tag_112\n      jump\t// in\n    tag_214:\n        /* \"#utility.yul\":6682:6753   */\n      tag_215\n        /* \"#utility.yul\":6746:6752   */\n      dup2\n        /* \"#utility.yul\":6741:6744   */\n      dup6\n        /* \"#utility.yul\":6682:6753   */\n      tag_113\n      jump\t// in\n    tag_215:\n        /* \"#utility.yul\":6675:6753   */\n      swap4\n      pop\n        /* \"#utility.yul\":6762:6827   */\n      tag_216\n        /* \"#utility.yul\":6820:6826   */\n      dup2\n        /* \"#utility.yul\":6815:6818   */\n      dup6\n        /* \"#utility.yul\":6808:6812   */\n      0x20\n        /* \"#utility.yul\":6801:6806   */\n      dup7\n        /* \"#utility.yul\":6797:6813   */\n      add\n        /* \"#utility.yul\":6762:6827   */\n      tag_114\n      jump\t// in\n    tag_216:\n        /* \"#utility.yul\":6852:6881   */\n      tag_217\n        /* \"#utility.yul\":6874:6880   */\n      dup2\n        /* \"#utility.yul\":6852:6881   */\n      tag_99\n      jump\t// in\n    tag_217:\n        /* \"#utility.yul\":6847:6850   */\n      dup5\n        /* \"#utility.yul\":6843:6882   */\n      add\n        /* \"#utility.yul\":6836:6882   */\n      swap2\n      pop\n        /* \"#utility.yul\":6603:6888   */\n      pop\n        /* \"#utility.yul\":6511:6888   */\n      swap3\n      swap2\n      pop\n      pop\n      jump\t// out\n        /* \"#utility.yul\":6894:8152   */\n    tag_26:\n        /* \"#utility.yul\":7237:7241   */\n      0x00\n        /* \"#utility.yul\":7275:7278   */\n      0x0100\n        /* \"#utility.yul\":7264:7273   */\n      dup3\n        /* \"#utility.yul\":7260:7279   */\n      add\n        /* \"#utility.yul\":7252:7279   */\n      swap1\n      pop\n        /* \"#utility.yul\":7289:7360   */\n      tag_219\n        /* \"#utility.yul\":7357:7358   */\n      0x00\n        /* \"#utility.yul\":7346:7355   */\n      dup4\n        /* \"#utility.yul\":7342:7359   */\n      add\n        /* \"#utility.yul\":7333:7339   */\n      dup12\n        /* \"#utility.yul\":7289:7360   */\n      tag_110\n      jump\t// in\n    tag_219:\n        /* \"#utility.yul\":7407:7416   */\n      dup2\n        /* \"#utility.yul\":7401:7405   */\n      dup2\n        /* \"#utility.yul\":7397:7417   */\n      sub\n        /* \"#utility.yul\":7392:7394   */\n      0x20\n        /* \"#utility.yul\":7381:7390   */\n      dup4\n        /* \"#utility.yul\":7377:7395   */\n      add\n        /* \"#utility.yul\":7370:7418   */\n      mstore\n        /* \"#utility.yul\":7435:7513   */\n      tag_220\n        /* \"#utility.yul\":7508:7512   */\n      dup2\n        /* \"#utility.yul\":7499:7505   */\n      dup11\n        /* \"#utility.yul\":7435:7513   */\n      tag_115\n      jump\t// in\n    tag_220:\n        /* \"#utility.yul\":7427:7513   */\n      swap1\n      pop\n        /* \"#utility.yul\":7560:7569   */\n      dup2\n        /* \"#utility.yul\":7554:7558   */\n      dup2\n        /* \"#utility.yul\":7550:7570   */\n      sub\n        /* \"#utility.yul\":7545:7547   */\n      0x40\n        /* \"#utility.yul\":7534:7543   */\n      dup4\n        /* \"#utility.yul\":7530:7548   */\n      add\n        /* \"#utility.yul\":7523:7571   */\n      mstore\n        /* \"#utility.yul\":7588:7666   */\n      tag_221\n        /* \"#utility.yul\":7661:7665   */\n      dup2\n        /* \"#utility.yul\":7652:7658   */\n      dup10\n        /* \"#utility.yul\":7588:7666   */\n      tag_115\n      jump\t// in\n    tag_221:\n        /* \"#utility.yul\":7580:7666   */\n      swap1\n      pop\n        /* \"#utility.yul\":7713:7722   */\n      dup2\n        /* \"#utility.yul\":7707:7711   */\n      dup2\n        /* \"#utility.yul\":7703:7723   */\n      sub\n        /* \"#utility.yul\":7698:7700   */\n      0x60\n        /* \"#utility.yul\":7687:7696   */\n      dup4\n        /* \"#utility.yul\":7683:7701   */\n      add\n        /* \"#utility.yul\":7676:7724   */\n      mstore\n        /* \"#utility.yul\":7741:7819   */\n      tag_222\n        /* \"#utility.yul\":7814:7818   */\n      dup2\n        /* \"#utility.yul\":7805:7811   */\n      dup9\n        /* \"#utility.yul\":7741:7819   */\n      tag_115\n      jump\t// in\n    tag_222:\n        /* \"#utility.yul\":7733:7819   */\n      swap1\n      pop\n        /* \"#utility.yul\":7829:7902   */\n      tag_223\n        /* \"#utility.yul\":7897:7900   */\n      0x80\n        /* \"#utility.yul\":7886:7895   */\n      dup4\n        /* \"#utility.yul\":7882:7901   */\n      add\n        /* \"#utility.yul\":7873:7879   */\n      dup8\n        /* \"#utility.yul\":7829:7902   */\n      tag_110\n      jump\t// in\n    tag_223:\n        /* \"#utility.yul\":7912:7985   */\n      tag_224\n        /* \"#utility.yul\":7980:7983   */\n      0xa0\n        /* \"#utility.yul\":7969:7978   */\n      dup4\n        /* \"#utility.yul\":7965:7984   */\n      add\n        /* \"#utility.yul\":7956:7962   */\n      dup7\n        /* \"#utility.yul\":7912:7985   */\n      tag_110\n      jump\t// in\n    tag_224:\n        /* \"#utility.yul\":7995:8062   */\n      tag_225\n        /* \"#utility.yul\":8057:8060   */\n      0xc0\n        /* \"#utility.yul\":8046:8055   */\n      dup4\n        /* \"#utility.yul\":8042:8061   */\n      add\n        /* \"#utility.yul\":8033:8039   */\n      dup6\n        /* \"#utility.yul\":7995:8062   */\n      tag_111\n      jump\t// in\n    tag_225:\n        /* \"#utility.yul\":8072:8145   */\n      tag_226\n        /* \"#utility.yul\":8140:8143   */\n      0xe0\n        /* \"#utility.yul\":8129:8138   */\n      dup4\n        /* \"#utility.yul\":8125:8144   */\n      add\n        /* \"#utility.yul\":8116:8122   */\n      dup5\n        /* \"#utility.yul\":8072:8145   */\n      tag_110\n      jump\t// in\n    tag_226:\n        /* \"#utility.yul\":6894:8152   */\n      swap10\n      swap9\n      pop\n      pop\n      pop\n      pop\n      pop\n      pop\n      pop\n      pop\n      pop\n      jump\t// out\n        /* \"#utility.yul\":8158:8380   */\n    tag_30:\n        /* \"#utility.yul\":8251:8255   */\n      0x00\n        /* \"#utility.yul\":8289:8291   */\n      0x20\n        /* \"#utility.yul\":8278:8287   */\n      dup3\n        /* \"#utility.yul\":8274:8292   */\n      add\n        /* \"#utility.yul\":8266:8292   */\n      swap1\n      pop\n        /* \"#utility.yul\":8302:8373   */\n      tag_228\n        /* \"#utility.yul\":8370:8371   */\n      0x00\n        /* \"#utility.yul\":8359:8368   */\n      dup4\n        /* \"#utility.yul\":8355:8372   */\n      add\n        /* \"#utility.yul\":8346:8352   */\n      dup5\n        /* \"#utility.yul\":8302:8373   */\n      tag_110\n      jump\t// in\n    tag_228:\n        /* \"#utility.yul\":8158:8380   */\n      swap3\n      swap2\n      pop\n      pop\n      jump\t// out\n        /* \"#utility.yul\":8386:9864   */\n    tag_35:\n        /* \"#utility.yul\":8782:8786   */\n      0x00\n        /* \"#utility.yul\":8820:8823   */\n      0x0160\n        /* \"#utility.yul\":8809:8818   */\n      dup3\n        /* \"#utility.yul\":8805:8824   */\n      add\n        /* \"#utility.yul\":8797:8824   */\n      swap1\n      pop\n        /* \"#utility.yul\":8834:8905   */\n      tag_230\n        /* \"#utility.yul\":8902:8903   */\n      0x00\n        /* \"#utility.yul\":8891:8900   */\n      dup4\n        /* \"#utility.yul\":8887:8904   */\n      add\n        /* \"#utility.yul\":8878:8884   */\n      dup15\n        /* \"#utility.yul\":8834:8905   */\n      tag_110\n      jump\t// in\n    tag_230:\n        /* \"#utility.yul\":8915:8987   */\n      tag_231\n        /* \"#utility.yul\":8983:8985   */\n      0x20\n        /* \"#utility.yul\":8972:8981   */\n      dup4\n        /* \"#utility.yul\":8968:8986   */\n      add\n        /* \"#utility.yul\":8959:8965   */\n      dup14\n        /* \"#utility.yul\":8915:8987   */\n      tag_110\n      jump\t// in\n    tag_231:\n        /* \"#utility.yul\":9034:9043   */\n      dup2\n        /* \"#utility.yul\":9028:9032   */\n      dup2\n        /* \"#utility.yul\":9024:9044   */\n      sub\n        /* \"#utility.yul\":9019:9021   */\n      0x40\n        /* \"#utility.yul\":9008:9017   */\n      dup4\n        /* \"#utility.yul\":9004:9022   */\n      add\n        /* \"#utility.yul\":8997:9045   */\n      mstore\n        /* \"#utility.yul\":9062:9140   */\n      tag_232\n        /* \"#utility.yul\":9135:9139   */\n      dup2\n        /* \"#utility.yul\":9126:9132   */\n      dup13\n        /* \"#utility.yul\":9062:9140   */\n      tag_115\n      jump\t// in\n    tag_232:\n        /* \"#utility.yul\":9054:9140   */\n      swap1\n      pop\n        /* \"#utility.yul\":9150:9222   */\n      tag_233\n        /* \"#utility.yul\":9218:9220   */\n      0x60\n        /* \"#utility.yul\":9207:9216   */\n      dup4\n        /* \"#utility.yul\":9203:9221   */\n      add\n        /* \"#utility.yul\":9194:9200   */\n      dup12\n        /* \"#utility.yul\":9150:9222   */\n      tag_110\n      jump\t// in\n    tag_233:\n        /* \"#utility.yul\":9270:9279   */\n      dup2\n        /* \"#utility.yul\":9264:9268   */\n      dup2\n        /* \"#utility.yul\":9260:9280   */\n      sub\n        /* \"#utility.yul\":9254:9257   */\n      0x80\n        /* \"#utility.yul\":9243:9252   */\n      dup4\n        /* \"#utility.yul\":9239:9258   */\n      add\n        /* \"#utility.yul\":9232:9281   */\n      mstore\n        /* \"#utility.yul\":9298:9376   */\n      tag_234\n        /* \"#utility.yul\":9371:9375   */\n      dup2\n        /* \"#utility.yul\":9362:9368   */\n      dup11\n        /* \"#utility.yul\":9298:9376   */\n      tag_115\n      jump\t// in\n    tag_234:\n        /* \"#utility.yul\":9290:9376   */\n      swap1\n      pop\n        /* \"#utility.yul\":9386:9459   */\n      tag_235\n        /* \"#utility.yul\":9454:9457   */\n      0xa0\n        /* \"#utility.yul\":9443:9452   */\n      dup4\n        /* \"#utility.yul\":9439:9458   */\n      add\n        /* \"#utility.yul\":9430:9436   */\n      dup10\n        /* \"#utility.yul\":9386:9459   */\n      tag_110\n      jump\t// in\n    tag_235:\n        /* \"#utility.yul\":9469:9542   */\n      tag_236\n        /* \"#utility.yul\":9537:9540   */\n      0xc0\n        /* \"#utility.yul\":9526:9535   */\n      dup4\n        /* \"#utility.yul\":9522:9541   */\n      add\n        /* \"#utility.yul\":9513:9519   */\n      dup9\n        /* \"#utility.yul\":9469:9542   */\n      tag_110\n      jump\t// in\n    tag_236:\n        /* \"#utility.yul\":9552:9625   */\n      tag_237\n        /* \"#utility.yul\":9620:9623   */\n      0xe0\n        /* \"#utility.yul\":9609:9618   */\n      dup4\n        /* \"#utility.yul\":9605:9624   */\n      add\n        /* \"#utility.yul\":9596:9602   */\n      dup8\n        /* \"#utility.yul\":9552:9625   */\n      tag_110\n      jump\t// in\n    tag_237:\n        /* \"#utility.yul\":9635:9702   */\n      tag_238\n        /* \"#utility.yul\":9697:9700   */\n      0x0100\n        /* \"#utility.yul\":9686:9695   */\n      dup4\n        /* \"#utility.yul\":9682:9701   */\n      add\n        /* \"#utility.yul\":9673:9679   */\n      dup7\n        /* \"#utility.yul\":9635:9702   */\n      tag_111\n      jump\t// in\n    tag_238:\n        /* \"#utility.yul\":9712:9779   */\n      tag_239\n        /* \"#utility.yul\":9774:9777   */\n      0x0120\n        /* \"#utility.yul\":9763:9772   */\n      dup4\n        /* \"#utility.yul\":9759:9778   */\n      add\n        /* \"#utility.yul\":9750:9756   */\n      dup6\n        /* \"#utility.yul\":9712:9779   */\n      tag_111\n      jump\t// in\n    tag_239:\n        /* \"#utility.yul\":9789:9857   */\n      tag_240\n        /* \"#utility.yul\":9852:9855   */\n      0x0140\n        /* \"#utility.yul\":9841:9850   */\n      dup4\n        /* \"#utility.yul\":9837:9856   */\n      add\n        /* \"#utility.yul\":9827:9834   */\n      dup5\n        /* \"#utility.yul\":9789:9857   */\n      tag_111\n      jump\t// in\n    tag_240:\n        /* \"#utility.yul\":8386:9864   */\n      swap13\n      swap12\n      pop\n      pop\n      pop\n      pop\n      pop\n      pop\n      pop\n      pop\n      pop\n      pop\n      pop\n      pop\n      jump\t// out\n        /* \"#utility.yul\":9870:10038   */\n    tag_116:\n        /* \"#utility.yul\":10010:10030   */\n      0x446f63746f722049642069732077726f6e670000000000000000000000000000\n        /* \"#utility.yul\":10006:10007   */\n      0x00\n        /* \"#utility.yul\":9998:10004   */\n      dup3\n        /* \"#utility.yul\":9994:10008   */\n      add\n        /* \"#utility.yul\":9987:10031   */\n      mstore\n        /* \"#utility.yul\":9870:10038   */\n      pop\n      jump\t// out\n        /* \"#utility.yul\":10044:10410   */\n    tag_117:\n        /* \"#utility.yul\":10186:10189   */\n      0x00\n        /* \"#utility.yul\":10207:10274   */\n      tag_243\n        /* \"#utility.yul\":10271:10273   */\n      0x12\n        /* \"#utility.yul\":10266:10269   */\n      dup4\n        /* \"#utility.yul\":10207:10274   */\n      tag_113\n      jump\t// in\n    tag_243:\n        /* \"#utility.yul\":10200:10274   */\n      swap2\n      pop\n        /* \"#utility.yul\":10283:10376   */\n      tag_244\n        /* \"#utility.yul\":10372:10375   */\n      dup3\n        /* \"#utility.yul\":10283:10376   */\n      tag_116\n      jump\t// in\n    tag_244:\n        /* \"#utility.yul\":10401:10403   */\n      0x20\n        /* \"#utility.yul\":10396:10399   */\n      dup3\n        /* \"#utility.yul\":10392:10404   */\n      add\n        /* \"#utility.yul\":10385:10404   */\n      swap1\n      pop\n        /* \"#utility.yul\":10044:10410   */\n      swap2\n      swap1\n      pop\n      jump\t// out\n        /* \"#utility.yul\":10416:10835   */\n    tag_49:\n        /* \"#utility.yul\":10582:10586   */\n      0x00\n        /* \"#utility.yul\":10620:10622   */\n      0x20\n        /* \"#utility.yul\":10609:10618   */\n      dup3\n        /* \"#utility.yul\":10605:10623   */\n      add\n        /* \"#utility.yul\":10597:10623   */\n      swap1\n      pop\n        /* \"#utility.yul\":10669:10678   */\n      dup2\n        /* \"#utility.yul\":10663:10667   */\n      dup2\n        /* \"#utility.yul\":10659:10679   */\n      sub\n        /* \"#utility.yul\":10655:10656   */\n      0x00\n        /* \"#utility.yul\":10644:10653   */\n      dup4\n        /* \"#utility.yul\":10640:10657   */\n      add\n        /* \"#utility.yul\":10633:10680   */\n      mstore\n        /* \"#utility.yul\":10697:10828   */\n      tag_246\n        /* \"#utility.yul\":10823:10827   */\n      dup2\n        /* \"#utility.yul\":10697:10828   */\n      tag_117\n      jump\t// in\n    tag_246:\n        /* \"#utility.yul\":10689:10828   */\n      swap1\n      pop\n        /* \"#utility.yul\":10416:10835   */\n      swap2\n      swap1\n      pop\n      jump\t// out\n        /* \"#utility.yul\":10841:11021   */\n    tag_118:\n        /* \"#utility.yul\":10981:11013   */\n      0x446f63746f72277320646974792074696d652069732066696e69736865640000\n        /* \"#utility.yul\":10977:10978   */\n      0x00\n        /* \"#utility.yul\":10969:10975   */\n      dup3\n        /* \"#utility.yul\":10965:10979   */\n      add\n        /* \"#utility.yul\":10958:11014   */\n      mstore\n        /* \"#utility.yul\":10841:11021   */\n      pop\n      jump\t// out\n        /* \"#utility.yul\":11027:11393   */\n    tag_119:\n        /* \"#utility.yul\":11169:11172   */\n      0x00\n        /* \"#utility.yul\":11190:11257   */\n      tag_249\n        /* \"#utility.yul\":11254:11256   */\n      0x1e\n        /* \"#utility.yul\":11249:11252   */\n      dup4\n        /* \"#utility.yul\":11190:11257   */\n      tag_113\n      jump\t// in\n    tag_249:\n        /* \"#utility.yul\":11183:11257   */\n      swap2\n      pop\n        /* \"#utility.yul\":11266:11359   */\n      tag_250\n        /* \"#utility.yul\":11355:11358   */\n      dup3\n        /* \"#utility.yul\":11266:11359   */\n      tag_118\n      jump\t// in\n    tag_250:\n        /* \"#utility.yul\":11384:11386   */\n      0x20\n        /* \"#utility.yul\":11379:11382   */\n      dup3\n        /* \"#utility.yul\":11375:11387   */\n      add\n        /* \"#utility.yul\":11368:11387   */\n      swap1\n      pop\n        /* \"#utility.yul\":11027:11393   */\n      swap2\n      swap1\n      pop\n      jump\t// out\n        /* \"#utility.yul\":11399:11818   */\n    tag_53:\n        /* \"#utility.yul\":11565:11569   */\n      0x00\n        /* \"#utility.yul\":11603:11605   */\n      0x20\n        /* \"#utility.yul\":11592:11601   */\n      dup3\n        /* \"#utility.yul\":11588:11606   */\n      add\n        /* \"#utility.yul\":11580:11606   */\n      swap1\n      pop\n        /* \"#utility.yul\":11652:11661   */\n      dup2\n        /* \"#utility.yul\":11646:11650   */\n      dup2\n        /* \"#utility.yul\":11642:11662   */\n      sub\n        /* \"#utility.yul\":11638:11639   */\n      0x00\n        /* \"#utility.yul\":11627:11636   */\n      dup4\n        /* \"#utility.yul\":11623:11640   */\n      add\n        /* \"#utility.yul\":11616:11663   */\n      mstore\n        /* \"#utility.yul\":11680:11811   */\n      tag_252\n        /* \"#utility.yul\":11806:11810   */\n      dup2\n        /* \"#utility.yul\":11680:11811   */\n      tag_119\n      jump\t// in\n    tag_252:\n        /* \"#utility.yul\":11672:11811   */\n      swap1\n      pop\n        /* \"#utility.yul\":11399:11818   */\n      swap2\n      swap1\n      pop\n      jump\t// out\n        /* \"#utility.yul\":11824:12004   */\n    tag_120:\n        /* \"#utility.yul\":11872:11949   */\n      0x4e487b7100000000000000000000000000000000000000000000000000000000\n        /* \"#utility.yul\":11869:11870   */\n      0x00\n        /* \"#utility.yul\":11862:11950   */\n      mstore\n        /* \"#utility.yul\":11969:11973   */\n      0x11\n        /* \"#utility.yul\":11966:11967   */\n      0x04\n        /* \"#utility.yul\":11959:11974   */\n      mstore\n        /* \"#utility.yul\":11993:11997   */\n      0x24\n        /* \"#utility.yul\":11990:11991   */\n      0x00\n        /* \"#utility.yul\":11983:11998   */\n      revert\n        /* \"#utility.yul\":12010:12243   */\n    tag_56:\n        /* \"#utility.yul\":12049:12052   */\n      0x00\n        /* \"#utility.yul\":12072:12096   */\n      tag_255\n        /* \"#utility.yul\":12090:12095   */\n      dup3\n        /* \"#utility.yul\":12072:12096   */\n      tag_94\n      jump\t// in\n    tag_255:\n        /* \"#utility.yul\":12063:12096   */\n      swap2\n      pop\n        /* \"#utility.yul\":12118:12184   */\n      0xffffffffffffffffffffffffffffffffffffffffffffffffffffffffffffffff\n        /* \"#utility.yul\":12111:12116   */\n      dup3\n        /* \"#utility.yul\":12108:12185   */\n      sub\n        /* \"#utility.yul\":12105:12208   */\n      tag_256\n      jumpi\n        /* \"#utility.yul\":12188:12206   */\n      tag_257\n      tag_120\n      jump\t// in\n    tag_257:\n        /* \"#utility.yul\":12105:12208   */\n    tag_256:\n        /* \"#utility.yul\":12235:12236   */\n      0x01\n        /* \"#utility.yul\":12228:12233   */\n      dup3\n        /* \"#utility.yul\":12224:12237   */\n      add\n        /* \"#utility.yul\":12217:12237   */\n      swap1\n      pop\n        /* \"#utility.yul\":12010:12243   */\n      swap2\n      swap1\n      pop\n      jump\t// out\n        /* \"#utility.yul\":12249:12440   */\n    tag_58:\n        /* \"#utility.yul\":12289:12292   */\n      0x00\n        /* \"#utility.yul\":12308:12328   */\n      tag_259\n        /* \"#utility.yul\":12326:12327   */\n      dup3\n        /* \"#utility.yul\":12308:12328   */\n      tag_94\n      jump\t// in\n    tag_259:\n        /* \"#utility.yul\":12303:12328   */\n      swap2\n      pop\n        /* \"#utility.yul\":12342:12362   */\n      tag_260\n        /* \"#utility.yul\":12360:12361   */\n      dup4\n        /* \"#utility.yul\":12342:12362   */\n      tag_94\n      jump\t// in\n    tag_260:\n        /* \"#utility.yul\":12337:12362   */\n      swap3\n      pop\n        /* \"#utility.yul\":12385:12386   */\n      dup3\n        /* \"#utility.yul\":12382:12383   */\n      dup3\n        /* \"#utility.yul\":12378:12387   */\n      add\n        /* \"#utility.yul\":12371:12387   */\n      swap1\n      pop\n        /* \"#utility.yul\":12406:12409   */\n      dup1\n        /* \"#utility.yul\":12403:12404   */\n      dup3\n        /* \"#utility.yul\":12400:12410   */\n      gt\n        /* \"#utility.yul\":12397:12433   */\n      iszero\n      tag_261\n      jumpi\n        /* \"#utility.yul\":12413:12431   */\n      tag_262\n      tag_120\n      jump\t// in\n    tag_262:\n        /* \"#utility.yul\":12397:12433   */\n    tag_261:\n        /* \"#utility.yul\":12249:12440   */\n      swap3\n      swap2\n      pop\n      pop\n      jump\t// out\n        /* \"#utility.yul\":12446:12626   */\n    tag_121:\n        /* \"#utility.yul\":12494:12571   */\n      0x4e487b7100000000000000000000000000000000000000000000000000000000\n        /* \"#utility.yul\":12491:12492   */\n      0x00\n        /* \"#utility.yul\":12484:12572   */\n      mstore\n        /* \"#utility.yul\":12591:12595   */\n      0x22\n        /* \"#utility.yul\":12588:12589   */\n      0x04\n        /* \"#utility.yul\":12581:12596   */\n      mstore\n        /* \"#utility.yul\":12615:12619   */\n      0x24\n        /* \"#utility.yul\":12612:12613   */\n      0x00\n        /* \"#utility.yul\":12605:12620   */\n      revert\n        /* \"#utility.yul\":12632:12952   */\n    tag_66:\n        /* \"#utility.yul\":12676:12682   */\n      0x00\n        /* \"#utility.yul\":12713:12714   */\n      0x02\n        /* \"#utility.yul\":12707:12711   */\n      dup3\n        /* \"#utility.yul\":12703:12715   */\n      div\n        /* \"#utility.yul\":12693:12715   */\n      swap1\n      pop\n        /* \"#utility.yul\":12760:12761   */\n      0x01\n        /* \"#utility.yul\":12754:12758   */\n      dup3\n        /* \"#utility.yul\":12750:12762   */\n      and\n        /* \"#utility.yul\":12781:12799   */\n      dup1\n        /* \"#utility.yul\":12771:12852   */\n      tag_265\n      jumpi\n        /* \"#utility.yul\":12837:12841   */\n      0x7f\n        /* \"#utility.yul\":12829:12835   */\n      dup3\n        /* \"#utility.yul\":12825:12842   */\n      and\n        /* \"#utility.yul\":12815:12842   */\n      swap2\n      pop\n        /* \"#utility.yul\":12771:12852   */\n    tag_265:\n        /* \"#utility.yul\":12899:12901   */\n      0x20\n        /* \"#utility.yul\":12891:12897   */\n      dup3\n        /* \"#utility.yul\":12888:12902   */\n      lt\n        /* \"#utility.yul\":12868:12886   */\n      dup2\n        /* \"#utility.yul\":12865:12903   */\n      sub\n        /* \"#utility.yul\":12862:12946   */\n      tag_266\n      jumpi\n        /* \"#utility.yul\":12918:12936   */\n      tag_267\n      tag_121\n      jump\t// in\n    tag_267:\n        /* \"#utility.yul\":12862:12946   */\n    tag_266:\n        /* \"#utility.yul\":12683:12952   */\n      pop\n        /* \"#utility.yul\":12632:12952   */\n      swap2\n      swap1\n      pop\n      jump\t// out\n        /* \"#utility.yul\":12958:13099   */\n    tag_122:\n        /* \"#utility.yul\":13007:13011   */\n      0x00\n        /* \"#utility.yul\":13030:13033   */\n      dup2\n        /* \"#utility.yul\":13022:13033   */\n      swap1\n      pop\n        /* \"#utility.yul\":13053:13056   */\n      dup2\n        /* \"#utility.yul\":13050:13051   */\n      0x00\n        /* \"#utility.yul\":13043:13057   */\n      mstore\n        /* \"#utility.yul\":13087:13091   */\n      0x20\n        /* \"#utility.yul\":13084:13085   */\n      0x00\n        /* \"#utility.yul\":13074:13092   */\n      keccak256\n        /* \"#utility.yul\":13066:13092   */\n      swap1\n      pop\n        /* \"#utility.yul\":12958:13099   */\n      swap2\n      swap1\n      pop\n      jump\t// out\n        /* \"#utility.yul\":13105:13198   */\n    tag_123:\n        /* \"#utility.yul\":13142:13148   */\n      0x00\n        /* \"#utility.yul\":13189:13191   */\n      0x20\n        /* \"#utility.yul\":13184:13186   */\n      0x1f\n        /* \"#utility.yul\":13177:13182   */\n      dup4\n        /* \"#utility.yul\":13173:13187   */\n      add\n        /* \"#utility.yul\":13169:13192   */\n      div\n        /* \"#utility.yul\":13159:13192   */\n      swap1\n      pop\n        /* \"#utility.yul\":13105:13198   */\n      swap2\n      swap1\n      pop\n      jump\t// out\n        /* \"#utility.yul\":13204:13311   */\n    tag_124:\n        /* \"#utility.yul\":13248:13256   */\n      0x00\n        /* \"#utility.yul\":13298:13303   */\n      dup3\n        /* \"#utility.yul\":13292:13296   */\n      dup3\n        /* \"#utility.yul\":13288:13304   */\n      shl\n        /* \"#utility.yul\":13267:13304   */\n      swap1\n      pop\n        /* \"#utility.yul\":13204:13311   */\n      swap3\n      swap2\n      pop\n      pop\n      jump\t// out\n        /* \"#utility.yul\":13317:13710   */\n    tag_125:\n        /* \"#utility.yul\":13386:13392   */\n      0x00\n        /* \"#utility.yul\":13436:13437   */\n      0x08\n        /* \"#utility.yul\":13424:13434   */\n      dup4\n        /* \"#utility.yul\":13420:13438   */\n      mul\n        /* \"#utility.yul\":13459:13556   */\n      tag_272\n        /* \"#utility.yul\":13489:13555   */\n      0xffffffffffffffffffffffffffffffffffffffffffffffffffffffffffffffff\n        /* \"#utility.yul\":13478:13487   */\n      dup3\n        /* \"#utility.yul\":13459:13556   */\n      tag_124\n      jump\t// in\n    tag_272:\n        /* \"#utility.yul\":13577:13616   */\n      tag_273\n        /* \"#utility.yul\":13607:13615   */\n      dup7\n        /* \"#utility.yul\":13596:13605   */\n      dup4\n        /* \"#utility.yul\":13577:13616   */\n      tag_124\n      jump\t// in\n    tag_273:\n        /* \"#utility.yul\":13565:13616   */\n      swap6\n      pop\n        /* \"#utility.yul\":13649:13653   */\n      dup1\n        /* \"#utility.yul\":13645:13654   */\n      not\n        /* \"#utility.yul\":13638:13643   */\n      dup5\n        /* \"#utility.yul\":13634:13655   */\n      and\n        /* \"#utility.yul\":13625:13655   */\n      swap4\n      pop\n        /* \"#utility.yul\":13698:13702   */\n      dup1\n        /* \"#utility.yul\":13688:13696   */\n      dup7\n        /* \"#utility.yul\":13684:13703   */\n      and\n        /* \"#utility.yul\":13677:13682   */\n      dup5\n        /* \"#utility.yul\":13674:13704   */\n      or\n        /* \"#utility.yul\":13664:13704   */\n      swap3\n      pop\n        /* \"#utility.yul\":13393:13710   */\n      pop\n      pop\n        /* \"#utility.yul\":13317:13710   */\n      swap4\n      swap3\n      pop\n      pop\n      pop\n      jump\t// out\n        /* \"#utility.yul\":13716:13776   */\n    tag_126:\n        /* \"#utility.yul\":13744:13747   */\n      0x00\n        /* \"#utility.yul\":13765:13770   */\n      dup2\n        /* \"#utility.yul\":13758:13770   */\n      swap1\n      pop\n        /* \"#utility.yul\":13716:13776   */\n      swap2\n      swap1\n      pop\n      jump\t// out\n        /* \"#utility.yul\":13782:13924   */\n    tag_127:\n        /* \"#utility.yul\":13832:13841   */\n      0x00\n        /* \"#utility.yul\":13865:13918   */\n      tag_276\n        /* \"#utility.yul\":13883:13917   */\n      tag_277\n        /* \"#utility.yul\":13892:13916   */\n      tag_278\n        /* \"#utility.yul\":13910:13915   */\n      dup5\n        /* \"#utility.yul\":13892:13916   */\n      tag_94\n      jump\t// in\n    tag_278:\n        /* \"#utility.yul\":13883:13917   */\n      tag_126\n      jump\t// in\n    tag_277:\n        /* \"#utility.yul\":13865:13918   */\n      tag_94\n      jump\t// in\n    tag_276:\n        /* \"#utility.yul\":13852:13918   */\n      swap1\n      pop\n        /* \"#utility.yul\":13782:13924   */\n      swap2\n      swap1\n      pop\n      jump\t// out\n        /* \"#utility.yul\":13930:14005   */\n    tag_128:\n        /* \"#utility.yul\":13973:13976   */\n      0x00\n        /* \"#utility.yul\":13994:13999   */\n      dup2\n        /* \"#utility.yul\":13987:13999   */\n      swap1\n      pop\n        /* \"#utility.yul\":13930:14005   */\n      swap2\n      swap1\n      pop\n      jump\t// out\n        /* \"#utility.yul\":14011:14280   */\n    tag_129:\n        /* \"#utility.yul\":14121:14160   */\n      tag_281\n        /* \"#utility.yul\":14152:14159   */\n      dup4\n        /* \"#utility.yul\":14121:14160   */\n      tag_127\n      jump\t// in\n    tag_281:\n        /* \"#utility.yul\":14182:14273   */\n      tag_282\n        /* \"#utility.yul\":14231:14272   */\n      tag_283\n        /* \"#utility.yul\":14255:14271   */\n      dup3\n        /* \"#utility.yul\":14231:14272   */\n      tag_128\n      jump\t// in\n    tag_283:\n        /* \"#utility.yul\":14223:14229   */\n      dup5\n        /* \"#utility.yul\":14216:14220   */\n      dup5\n        /* \"#utility.yul\":14210:14221   */\n      sload\n        /* \"#utility.yul\":14182:14273   */\n      tag_125\n      jump\t// in\n    tag_282:\n        /* \"#utility.yul\":14176:14180   */\n      dup3\n        /* \"#utility.yul\":14169:14274   */\n      sstore\n        /* \"#utility.yul\":14087:14280   */\n      pop\n        /* \"#utility.yul\":14011:14280   */\n      pop\n      pop\n      pop\n      jump\t// out\n        /* \"#utility.yul\":14286:14359   */\n    tag_130:\n        /* \"#utility.yul\":14331:14334   */\n      0x00\n        /* \"#utility.yul\":14286:14359   */\n      swap1\n      jump\t// out\n        /* \"#utility.yul\":14365:14554   */\n    tag_131:\n        /* \"#utility.yul\":14442:14474   */\n      tag_286\n      tag_130\n      jump\t// in\n    tag_286:\n        /* \"#utility.yul\":14483:14548   */\n      tag_287\n        /* \"#utility.yul\":14541:14547   */\n      dup2\n        /* \"#utility.yul\":14533:14539   */\n      dup5\n        /* \"#utility.yul\":14527:14531   */\n      dup5\n        /* \"#utility.yul\":14483:14548   */\n      tag_129\n      jump\t// in\n    tag_287:\n        /* \"#utility.yul\":14418:14554   */\n      pop\n        /* \"#utility.yul\":14365:14554   */\n      pop\n      pop\n      jump\t// out\n        /* \"#utility.yul\":14560:14746   */\n    tag_132:\n        /* \"#utility.yul\":14620:14740   */\n    tag_289:\n        /* \"#utility.yul\":14637:14640   */\n      dup2\n        /* \"#utility.yul\":14630:14635   */\n      dup2\n        /* \"#utility.yul\":14627:14641   */\n      lt\n        /* \"#utility.yul\":14620:14740   */\n      iszero\n      tag_291\n      jumpi\n        /* \"#utility.yul\":14691:14730   */\n      tag_292\n        /* \"#utility.yul\":14728:14729   */\n      0x00\n        /* \"#utility.yul\":14721:14726   */\n      dup3\n        /* \"#utility.yul\":14691:14730   */\n      tag_131\n      jump\t// in\n    tag_292:\n        /* \"#utility.yul\":14664:14665   */\n      0x01\n        /* \"#utility.yul\":14657:14662   */\n      dup2\n        /* \"#utility.yul\":14653:14666   */\n      add\n        /* \"#utility.yul\":14644:14666   */\n      swap1\n      pop\n        /* \"#utility.yul\":14620:14740   */\n      jump(tag_289)\n    tag_291:\n        /* \"#utility.yul\":14560:14746   */\n      pop\n      pop\n      jump\t// out\n        /* \"#utility.yul\":14752:15295   */\n    tag_133:\n        /* \"#utility.yul\":14853:14855   */\n      0x1f\n        /* \"#utility.yul\":14848:14851   */\n      dup3\n        /* \"#utility.yul\":14845:14856   */\n      gt\n        /* \"#utility.yul\":14842:15288   */\n      iszero\n      tag_294\n      jumpi\n        /* \"#utility.yul\":14887:14925   */\n      tag_295\n        /* \"#utility.yul\":14919:14924   */\n      dup2\n        /* \"#utility.yul\":14887:14925   */\n      tag_122\n      jump\t// in\n    tag_295:\n        /* \"#utility.yul\":14971:15000   */\n      tag_296\n        /* \"#utility.yul\":14989:14999   */\n      dup5\n        /* \"#utility.yul\":14971:15000   */\n      tag_123\n      jump\t// in\n    tag_296:\n        /* \"#utility.yul\":14961:14969   */\n      dup2\n        /* \"#utility.yul\":14957:15001   */\n      add\n        /* \"#utility.yul\":15154:15156   */\n      0x20\n        /* \"#utility.yul\":15142:15152   */\n      dup6\n        /* \"#utility.yul\":15139:15157   */\n      lt\n        /* \"#utility.yul\":15136:15185   */\n      iszero\n      tag_297\n      jumpi\n        /* \"#utility.yul\":15175:15183   */\n      dup2\n        /* \"#utility.yul\":15160:15183   */\n      swap1\n      pop\n        /* \"#utility.yul\":15136:15185   */\n    tag_297:\n        /* \"#utility.yul\":15198:15278   */\n      tag_298\n        /* \"#utility.yul\":15254:15276   */\n      tag_299\n        /* \"#utility.yul\":15272:15275   */\n      dup6\n        /* \"#utility.yul\":15254:15276   */\n      tag_123\n      jump\t// in\n    tag_299:\n        /* \"#utility.yul\":15244:15252   */\n      dup4\n        /* \"#utility.yul\":15240:15277   */\n      add\n        /* \"#utility.yul\":15227:15238   */\n      dup3\n        /* \"#utility.yul\":15198:15278   */\n      tag_132\n      jump\t// in\n    tag_298:\n        /* \"#utility.yul\":14857:15288   */\n      pop\n      pop\n        /* \"#utility.yul\":14842:15288   */\n    tag_294:\n        /* \"#utility.yul\":14752:15295   */\n      pop\n      pop\n      pop\n      jump\t// out\n        /* \"#utility.yul\":15301:15418   */\n    tag_134:\n        /* \"#utility.yul\":15355:15363   */\n      0x00\n        /* \"#utility.yul\":15405:15410   */\n      dup3\n        /* \"#utility.yul\":15399:15403   */\n      dup3\n        /* \"#utility.yul\":15395:15411   */\n      shr\n        /* \"#utility.yul\":15374:15411   */\n      swap1\n      pop\n        /* \"#utility.yul\":15301:15418   */\n      swap3\n      swap2\n      pop\n      pop\n      jump\t// out\n        /* \"#utility.yul\":15424:15593   */\n    tag_135:\n        /* \"#utility.yul\":15468:15474   */\n      0x00\n        /* \"#utility.yul\":15501:15552   */\n      tag_302\n        /* \"#utility.yul\":15549:15550   */\n      0x00\n        /* \"#utility.yul\":15545:15551   */\n      not\n        /* \"#utility.yul\":15537:15542   */\n      dup5\n        /* \"#utility.yul\":15534:15535   */\n      0x08\n        /* \"#utility.yul\":15530:15543   */\n      mul\n        /* \"#utility.yul\":15501:15552   */\n      tag_134\n      jump\t// in\n    tag_302:\n        /* \"#utility.yul\":15497:15553   */\n      not\n        /* \"#utility.yul\":15582:15586   */\n      dup1\n        /* \"#utility.yul\":15576:15580   */\n      dup4\n        /* \"#utility.yul\":15572:15587   */\n      and\n        /* \"#utility.yul\":15562:15587   */\n      swap2\n      pop\n        /* \"#utility.yul\":15475:15593   */\n      pop\n        /* \"#utility.yul\":15424:15593   */\n      swap3\n      swap2\n      pop\n      pop\n      jump\t// out\n        /* \"#utility.yul\":15598:15893   */\n    tag_136:\n        /* \"#utility.yul\":15674:15678   */\n      0x00\n        /* \"#utility.yul\":15820:15849   */\n      tag_304\n        /* \"#utility.yul\":15845:15848   */\n      dup4\n        /* \"#utility.yul\":15839:15843   */\n      dup4\n        /* \"#utility.yul\":15820:15849   */\n      tag_135\n      jump\t// in\n    tag_304:\n        /* \"#utility.yul\":15812:15849   */\n      swap2\n      pop\n        /* \"#utility.yul\":15882:15885   */\n      dup3\n        /* \"#utility.yul\":15879:15880   */\n      0x02\n        /* \"#utility.yul\":15875:15886   */\n      mul\n        /* \"#utility.yul\":15869:15873   */\n      dup3\n        /* \"#utility.yul\":15866:15887   */\n      or\n        /* \"#utility.yul\":15858:15887   */\n      swap1\n      pop\n        /* \"#utility.yul\":15598:15893   */\n      swap3\n      swap2\n      pop\n      pop\n      jump\t// out\n        /* \"#utility.yul\":15898:17293   */\n    tag_60:\n        /* \"#utility.yul\":16015:16052   */\n      tag_306\n        /* \"#utility.yul\":16048:16051   */\n      dup3\n        /* \"#utility.yul\":16015:16052   */\n      tag_112\n      jump\t// in\n    tag_306:\n        /* \"#utility.yul\":16117:16135   */\n      0xffffffffffffffff\n        /* \"#utility.yul\":16109:16115   */\n      dup2\n        /* \"#utility.yul\":16106:16136   */\n      gt\n        /* \"#utility.yul\":16103:16159   */\n      iszero\n      tag_307\n      jumpi\n        /* \"#utility.yul\":16139:16157   */\n      tag_308\n      tag_100\n      jump\t// in\n    tag_308:\n        /* \"#utility.yul\":16103:16159   */\n    tag_307:\n        /* \"#utility.yul\":16183:16221   */\n      tag_309\n        /* \"#utility.yul\":16215:16219   */\n      dup3\n        /* \"#utility.yul\":16209:16220   */\n      sload\n        /* \"#utility.yul\":16183:16221   */\n      tag_66\n      jump\t// in\n    tag_309:\n        /* \"#utility.yul\":16268:16335   */\n      tag_310\n        /* \"#utility.yul\":16328:16334   */\n      dup3\n        /* \"#utility.yul\":16320:16326   */\n      dup3\n        /* \"#utility.yul\":16314:16318   */\n      dup6\n        /* \"#utility.yul\":16268:16335   */\n      tag_133\n      jump\t// in\n    tag_310:\n        /* \"#utility.yul\":16362:16363   */\n      0x00\n        /* \"#utility.yul\":16386:16390   */\n      0x20\n        /* \"#utility.yul\":16373:16390   */\n      swap1\n      pop\n        /* \"#utility.yul\":16418:16420   */\n      0x1f\n        /* \"#utility.yul\":16410:16416   */\n      dup4\n        /* \"#utility.yul\":16407:16421   */\n      gt\n        /* \"#utility.yul\":16435:16436   */\n      0x01\n        /* \"#utility.yul\":16430:17048   */\n      dup2\n      eq\n      tag_312\n      jumpi\n        /* \"#utility.yul\":17092:17093   */\n      0x00\n        /* \"#utility.yul\":17109:17115   */\n      dup5\n        /* \"#utility.yul\":17106:17183   */\n      iszero\n      tag_313\n      jumpi\n        /* \"#utility.yul\":17158:17167   */\n      dup3\n        /* \"#utility.yul\":17153:17156   */\n      dup8\n        /* \"#utility.yul\":17149:17168   */\n      add\n        /* \"#utility.yul\":17143:17169   */\n      mload\n        /* \"#utility.yul\":17134:17169   */\n      swap1\n      pop\n        /* \"#utility.yul\":17106:17183   */\n    tag_313:\n        /* \"#utility.yul\":17209:17276   */\n      tag_314\n        /* \"#utility.yul\":17269:17275   */\n      dup6\n        /* \"#utility.yul\":17262:17267   */\n      dup3\n        /* \"#utility.yul\":17209:17276   */\n      tag_136\n      jump\t// in\n    tag_314:\n        /* \"#utility.yul\":17203:17207   */\n      dup7\n        /* \"#utility.yul\":17196:17277   */\n      sstore\n        /* \"#utility.yul\":17065:17287   */\n      pop\n        /* \"#utility.yul\":16400:17287   */\n      jump(tag_311)\n        /* \"#utility.yul\":16430:17048   */\n    tag_312:\n        /* \"#utility.yul\":16482:16486   */\n      0x1f\n        /* \"#utility.yul\":16478:16487   */\n      not\n        /* \"#utility.yul\":16470:16476   */\n      dup5\n        /* \"#utility.yul\":16466:16488   */\n      and\n        /* \"#utility.yul\":16516:16553   */\n      tag_315\n        /* \"#utility.yul\":16548:16552   */\n      dup7\n        /* \"#utility.yul\":16516:16553   */\n      tag_122\n      jump\t// in\n    tag_315:\n        /* \"#utility.yul\":16575:16576   */\n      0x00\n        /* \"#utility.yul\":16589:16797   */\n    tag_316:\n        /* \"#utility.yul\":16603:16610   */\n      dup3\n        /* \"#utility.yul\":16600:16601   */\n      dup2\n        /* \"#utility.yul\":16597:16611   */\n      lt\n        /* \"#utility.yul\":16589:16797   */\n      iszero\n      tag_318\n      jumpi\n        /* \"#utility.yul\":16682:16691   */\n      dup5\n        /* \"#utility.yul\":16677:16680   */\n      dup10\n        /* \"#utility.yul\":16673:16692   */\n      add\n        /* \"#utility.yul\":16667:16693   */\n      mload\n        /* \"#utility.yul\":16659:16665   */\n      dup3\n        /* \"#utility.yul\":16652:16694   */\n      sstore\n        /* \"#utility.yul\":16733:16734   */\n      0x01\n        /* \"#utility.yul\":16725:16731   */\n      dup3\n        /* \"#utility.yul\":16721:16735   */\n      add\n        /* \"#utility.yul\":16711:16735   */\n      swap2\n      pop\n        /* \"#utility.yul\":16780:16782   */\n      0x20\n        /* \"#utility.yul\":16769:16778   */\n      dup6\n        /* \"#utility.yul\":16765:16783   */\n      add\n        /* \"#utility.yul\":16752:16783   */\n      swap5\n      pop\n        /* \"#utility.yul\":16626:16630   */\n      0x20\n        /* \"#utility.yul\":16623:16624   */\n      dup2\n        /* \"#utility.yul\":16619:16631   */\n      add\n        /* \"#utility.yul\":16614:16631   */\n      swap1\n      pop\n        /* \"#utility.yul\":16589:16797   */\n      jump(tag_316)\n    tag_318:\n        /* \"#utility.yul\":16825:16831   */\n      dup7\n        /* \"#utility.yul\":16816:16823   */\n      dup4\n        /* \"#utility.yul\":16813:16832   */\n      lt\n        /* \"#utility.yul\":16810:16989   */\n      iszero\n      tag_319\n      jumpi\n        /* \"#utility.yul\":16883:16892   */\n      dup5\n        /* \"#utility.yul\":16878:16881   */\n      dup10\n        /* \"#utility.yul\":16874:16893   */\n      add\n        /* \"#utility.yul\":16868:16894   */\n      mload\n        /* \"#utility.yul\":16926:16974   */\n      tag_320\n        /* \"#utility.yul\":16968:16972   */\n      0x1f\n        /* \"#utility.yul\":16960:16966   */\n      dup10\n        /* \"#utility.yul\":16956:16973   */\n      and\n        /* \"#utility.yul\":16945:16954   */\n      dup3\n        /* \"#utility.yul\":16926:16974   */\n      tag_135\n      jump\t// in\n    tag_320:\n        /* \"#utility.yul\":16918:16924   */\n      dup4\n        /* \"#utility.yul\":16911:16975   */\n      sstore\n        /* \"#utility.yul\":16833:16989   */\n      pop\n        /* \"#utility.yul\":16810:16989   */\n    tag_319:\n        /* \"#utility.yul\":17035:17036   */\n      0x01\n        /* \"#utility.yul\":17031:17032   */\n      0x02\n        /* \"#utility.yul\":17023:17029   */\n      dup9\n        /* \"#utility.yul\":17019:17033   */\n      mul\n        /* \"#utility.yul\":17015:17037   */\n      add\n        /* \"#utility.yul\":17009:17013   */\n      dup9\n        /* \"#utility.yul\":17002:17038   */\n      sstore\n        /* \"#utility.yul\":16437:17048   */\n      pop\n      pop\n      pop\n        /* \"#utility.yul\":16400:17287   */\n    tag_311:\n      pop\n        /* \"#utility.yul\":15990:17293   */\n      pop\n      pop\n      pop\n        /* \"#utility.yul\":15898:17293   */\n      pop\n      pop\n      jump\t// out\n        /* \"#utility.yul\":17323:18154   */\n    tag_137:\n        /* \"#utility.yul\":17408:17411   */\n      0x00\n        /* \"#utility.yul\":17445:17450   */\n      dup2\n        /* \"#utility.yul\":17439:17451   */\n      sload\n        /* \"#utility.yul\":17474:17510   */\n      tag_322\n        /* \"#utility.yul\":17500:17509   */\n      dup2\n        /* \"#utility.yul\":17474:17510   */\n      tag_66\n      jump\t// in\n    tag_322:\n        /* \"#utility.yul\":17526:17597   */\n      tag_323\n        /* \"#utility.yul\":17590:17596   */\n      dup2\n        /* \"#utility.yul\":17585:17588   */\n      dup7\n        /* \"#utility.yul\":17526:17597   */\n      tag_113\n      jump\t// in\n    tag_323:\n        /* \"#utility.yul\":17519:17597   */\n      swap5\n      pop\n        /* \"#utility.yul\":17628:17629   */\n      0x01\n        /* \"#utility.yul\":17617:17626   */\n      dup3\n        /* \"#utility.yul\":17613:17630   */\n      and\n        /* \"#utility.yul\":17644:17645   */\n      0x00\n        /* \"#utility.yul\":17639:17803   */\n      dup2\n      eq\n      tag_325\n      jumpi\n        /* \"#utility.yul\":17817:17818   */\n      0x01\n        /* \"#utility.yul\":17812:18148   */\n      dup2\n      eq\n      tag_326\n      jumpi\n        /* \"#utility.yul\":17606:18148   */\n      jump(tag_324)\n        /* \"#utility.yul\":17639:17803   */\n    tag_325:\n        /* \"#utility.yul\":17723:17727   */\n      0xff\n        /* \"#utility.yul\":17719:17728   */\n      not\n        /* \"#utility.yul\":17708:17717   */\n      dup4\n        /* \"#utility.yul\":17704:17729   */\n      and\n        /* \"#utility.yul\":17699:17702   */\n      dup7\n        /* \"#utility.yul\":17692:17730   */\n      mstore\n        /* \"#utility.yul\":17783:17789   */\n      dup2\n        /* \"#utility.yul\":17776:17790   */\n      iszero\n        /* \"#utility.yul\":17769:17791   */\n      iszero\n        /* \"#utility.yul\":17763:17767   */\n      0x20\n        /* \"#utility.yul\":17759:17792   */\n      mul\n        /* \"#utility.yul\":17754:17757   */\n      dup7\n        /* \"#utility.yul\":17750:17793   */\n      add\n        /* \"#utility.yul\":17743:17793   */\n      swap4\n      pop\n        /* \"#utility.yul\":17639:17803   */\n      jump(tag_324)\n        /* \"#utility.yul\":17812:18148   */\n    tag_326:\n        /* \"#utility.yul\":17879:17917   */\n      tag_327\n        /* \"#utility.yul\":17911:17916   */\n      dup6\n        /* \"#utility.yul\":17879:17917   */\n      tag_122\n      jump\t// in\n    tag_327:\n        /* \"#utility.yul\":17939:17940   */\n      0x00\n        /* \"#utility.yul\":17953:18107   */\n    tag_328:\n        /* \"#utility.yul\":17967:17973   */\n      dup4\n        /* \"#utility.yul\":17964:17965   */\n      dup2\n        /* \"#utility.yul\":17961:17974   */\n      lt\n        /* \"#utility.yul\":17953:18107   */\n      iszero\n      tag_330\n      jumpi\n        /* \"#utility.yul\":18041:18048   */\n      dup2\n        /* \"#utility.yul\":18035:18049   */\n      sload\n        /* \"#utility.yul\":18031:18032   */\n      dup2\n        /* \"#utility.yul\":18026:18029   */\n      dup10\n        /* \"#utility.yul\":18022:18033   */\n      add\n        /* \"#utility.yul\":18015:18050   */\n      mstore\n        /* \"#utility.yul\":18091:18092   */\n      0x01\n        /* \"#utility.yul\":18082:18089   */\n      dup3\n        /* \"#utility.yul\":18078:18093   */\n      add\n        /* \"#utility.yul\":18067:18093   */\n      swap2\n      pop\n        /* \"#utility.yul\":17989:17993   */\n      0x20\n        /* \"#utility.yul\":17986:17987   */\n      dup2\n        /* \"#utility.yul\":17982:17994   */\n      add\n        /* \"#utility.yul\":17977:17994   */\n      swap1\n      pop\n        /* \"#utility.yul\":17953:18107   */\n      jump(tag_328)\n    tag_330:\n        /* \"#utility.yul\":18136:18137   */\n      dup1\n        /* \"#utility.yul\":18131:18134   */\n      dup9\n        /* \"#utility.yul\":18127:18138   */\n      add\n        /* \"#utility.yul\":18120:18138   */\n      swap6\n      pop\n        /* \"#utility.yul\":17819:18148   */\n      pop\n      pop\n        /* \"#utility.yul\":17606:18148   */\n    tag_324:\n      pop\n        /* \"#utility.yul\":17412:18154   */\n      pop\n      pop\n        /* \"#utility.yul\":17323:18154   */\n      swap3\n      swap2\n      pop\n      pop\n      jump\t// out\n        /* \"#utility.yul\":18160:19626   */\n    tag_64:\n        /* \"#utility.yul\":18550:18554   */\n      0x00\n        /* \"#utility.yul\":18588:18591   */\n      0x0160\n        /* \"#utility.yul\":18577:18586   */\n      dup3\n        /* \"#utility.yul\":18573:18592   */\n      add\n        /* \"#utility.yul\":18565:18592   */\n      swap1\n      pop\n        /* \"#utility.yul\":18602:18673   */\n      tag_332\n        /* \"#utility.yul\":18670:18671   */\n      0x00\n        /* \"#utility.yul\":18659:18668   */\n      dup4\n        /* \"#utility.yul\":18655:18672   */\n      add\n        /* \"#utility.yul\":18646:18652   */\n      dup15\n        /* \"#utility.yul\":18602:18673   */\n      tag_110\n      jump\t// in\n    tag_332:\n        /* \"#utility.yul\":18683:18755   */\n      tag_333\n        /* \"#utility.yul\":18751:18753   */\n      0x20\n        /* \"#utility.yul\":18740:18749   */\n      dup4\n        /* \"#utility.yul\":18736:18754   */\n      add\n        /* \"#utility.yul\":18727:18733   */\n      dup14\n        /* \"#utility.yul\":18683:18755   */\n      tag_110\n      jump\t// in\n    tag_333:\n        /* \"#utility.yul\":18802:18811   */\n      dup2\n        /* \"#utility.yul\":18796:18800   */\n      dup2\n        /* \"#utility.yul\":18792:18812   */\n      sub\n        /* \"#utility.yul\":18787:18789   */\n      0x40\n        /* \"#utility.yul\":18776:18785   */\n      dup4\n        /* \"#utility.yul\":18772:18790   */\n      add\n        /* \"#utility.yul\":18765:18813   */\n      mstore\n        /* \"#utility.yul\":18830:18905   */\n      tag_334\n        /* \"#utility.yul\":18900:18904   */\n      dup2\n        /* \"#utility.yul\":18891:18897   */\n      dup13\n        /* \"#utility.yul\":18830:18905   */\n      tag_137\n      jump\t// in\n    tag_334:\n        /* \"#utility.yul\":18822:18905   */\n      swap1\n      pop\n        /* \"#utility.yul\":18915:18987   */\n      tag_335\n        /* \"#utility.yul\":18983:18985   */\n      0x60\n        /* \"#utility.yul\":18972:18981   */\n      dup4\n        /* \"#utility.yul\":18968:18986   */\n      add\n        /* \"#utility.yul\":18959:18965   */\n      dup12\n        /* \"#utility.yul\":18915:18987   */\n      tag_110\n      jump\t// in\n    tag_335:\n        /* \"#utility.yul\":19035:19044   */\n      dup2\n        /* \"#utility.yul\":19029:19033   */\n      dup2\n        /* \"#utility.yul\":19025:19045   */\n      sub\n        /* \"#utility.yul\":19019:19022   */\n      0x80\n        /* \"#utility.yul\":19008:19017   */\n      dup4\n        /* \"#utility.yul\":19004:19023   */\n      add\n        /* \"#utility.yul\":18997:19046   */\n      mstore\n        /* \"#utility.yul\":19063:19138   */\n      tag_336\n        /* \"#utility.yul\":19133:19137   */\n      dup2\n        /* \"#utility.yul\":19124:19130   */\n      dup11\n        /* \"#utility.yul\":19063:19138   */\n      tag_137\n      jump\t// in\n    tag_336:\n        /* \"#utility.yul\":19055:19138   */\n      swap1\n      pop\n        /* \"#utility.yul\":19148:19221   */\n      tag_337\n        /* \"#utility.yul\":19216:19219   */\n      0xa0\n        /* \"#utility.yul\":19205:19214   */\n      dup4\n        /* \"#utility.yul\":19201:19220   */\n      add\n        /* \"#utility.yul\":19192:19198   */\n      dup10\n        /* \"#utility.yul\":19148:19221   */\n      tag_110\n      jump\t// in\n    tag_337:\n        /* \"#utility.yul\":19231:19304   */\n      tag_338\n        /* \"#utility.yul\":19299:19302   */\n      0xc0\n        /* \"#utility.yul\":19288:19297   */\n      dup4\n        /* \"#utility.yul\":19284:19303   */\n      add\n        /* \"#utility.yul\":19275:19281   */\n      dup9\n        /* \"#utility.yul\":19231:19304   */\n      tag_110\n      jump\t// in\n    tag_338:\n        /* \"#utility.yul\":19314:19387   */\n      tag_339\n        /* \"#utility.yul\":19382:19385   */\n      0xe0\n        /* \"#utility.yul\":19371:19380   */\n      dup4\n        /* \"#utility.yul\":19367:19386   */\n      add\n        /* \"#utility.yul\":19358:19364   */\n      dup8\n        /* \"#utility.yul\":19314:19387   */\n      tag_110\n      jump\t// in\n    tag_339:\n        /* \"#utility.yul\":19397:19464   */\n      tag_340\n        /* \"#utility.yul\":19459:19462   */\n      0x0100\n        /* \"#utility.yul\":19448:19457   */\n      dup4\n        /* \"#utility.yul\":19444:19463   */\n      add\n        /* \"#utility.yul\":19435:19441   */\n      dup7\n        /* \"#utility.yul\":19397:19464   */\n      tag_111\n      jump\t// in\n    tag_340:\n        /* \"#utility.yul\":19474:19541   */\n      tag_341\n        /* \"#utility.yul\":19536:19539   */\n      0x0120\n        /* \"#utility.yul\":19525:19534   */\n      dup4\n        /* \"#utility.yul\":19521:19540   */\n      add\n        /* \"#utility.yul\":19512:19518   */\n      dup6\n        /* \"#utility.yul\":19474:19541   */\n      tag_111\n      jump\t// in\n    tag_341:\n        /* \"#utility.yul\":19551:19619   */\n      tag_342\n        /* \"#utility.yul\":19614:19617   */\n      0x0140\n        /* \"#utility.yul\":19603:19612   */\n      dup4\n        /* \"#utility.yul\":19599:19618   */\n      add\n        /* \"#utility.yul\":19589:19596   */\n      dup5\n        /* \"#utility.yul\":19551:19619   */\n      tag_111\n      jump\t// in\n    tag_342:\n        /* \"#utility.yul\":18160:19626   */\n      swap13\n      swap12\n      pop\n      pop\n      pop\n      pop\n      pop\n      pop\n      pop\n      pop\n      pop\n      pop\n      pop\n      pop\n      jump\t// out\n\n    auxdata: 0xa264697066735822122022293eeefdd88677d882c16aaedce37bd1329389a543d14548a9bef19d0df9a064736f6c63430008130033\n}\n",
				"bytecode": {
					"linkReferences": {},
					"object": "608060405260016003556001600455600060055560006006556000600755600060085534801561002e57600080fd5b506112e88061003e6000396000f3fe608060405234801561001057600080fd5b50600436106100885760003560e01c806393119a831161005b57806393119a8314610130578063a0303c411461016a578063b613e00a14610188578063c8f6306d146101a657610088565b80630441078a1461008d57806312e4c274146100a95780636efb1b84146100db57806378522bc414610112575b600080fd5b6100a760048036038101906100a291906109be565b6101c4565b005b6100c360048036038101906100be9190610aac565b610429565b6040516100d293929190610af7565b60405180910390f35b6100f560048036038101906100f09190610aac565b610460565b604051610109989796959493929190610bad565b60405180910390f35b61011a61064d565b6040516101279190610c40565b60405180910390f35b61014a60048036038101906101459190610aac565b610653565b6040516101619b9a99989796959493929190610c5b565b60405180910390f35b6101726107e4565b60405161017f9190610c40565b60405180910390f35b6101906107ea565b60405161019d9190610c40565b60405180910390f35b6101ae6107f0565b6040516101bb9190610c40565b60405180910390f35b8260055460008083815260200190815260200160002060000154111580156101ed575060008114155b61022c576040517f08c379a000000000000000000000000000000000000000000000000000000000815260040161022390610d60565b60405180910390fd5b8342600080838152602001908152602001600020600501541015610285576040517f08c379a000000000000000000000000000000000000000000000000000000000815260040161027c90610dcc565b60405180910390fd5b60006001600060066000815461029a90610e1b565b919050819055815260200190815260200160002090508a426102bc9190610e63565b81600001819055506006548160010181905550898160020190816102e091906110a3565b50888160030181905550878160040190816102fb91906110a3565b5060086000815461030b90610e1b565b9190508190558160050181905550868160060181905550858160070181905550848160080160006101000a81548160ff021916908315150217905550838160080160016101000a81548160ff02191690831515021790555060008160080160026101000a81548160ff0219169083151502179055507f38228b678551390c21fb8c2c678e7211eecee3bc1166504e3b41fb2eb18c915181600001548260010154836002018460030154856004018660050154876006015488600701548960080160009054906101000a900460ff168a60080160019054906101000a900460ff168b60080160029054906101000a900460ff166040516104149b9a999897969594939291906111f9565b60405180910390a15050505050505050505050565b60026020528060005260406000206000915090508060000154908060010154908060020160009054906101000a900460ff16905083565b600060205280600052604060002060009150905080600001549080600101805461048990610ec6565b80601f01602080910402602001604051908101604052809291908181526020018280546104b590610ec6565b80156105025780601f106104d757610100808354040283529160200191610502565b820191906000526020600020905b8154815290600101906020018083116104e557829003601f168201915b50505050509080600201805461051790610ec6565b80601f016020809104026020016040519081016040528092919081815260200182805461054390610ec6565b80156105905780601f1061056557610100808354040283529160200191610590565b820191906000526020600020905b81548152906001019060200180831161057357829003601f168201915b5050505050908060030180546105a590610ec6565b80601f01602080910402602001604051908101604052809291908181526020018280546105d190610ec6565b801561061e5780601f106105f35761010080835404028352916020019161061e565b820191906000526020600020905b81548152906001019060200180831161060157829003601f168201915b5050505050908060040154908060050154908060060160009054906101000a900460ff16908060070154905088565b60055481565b600160205280600052604060002060009150905080600001549080600101549080600201805461068290610ec6565b80601f01602080910402602001604051908101604052809291908181526020018280546106ae90610ec6565b80156106fb5780601f106106d0576101008083540402835291602001916106fb565b820191906000526020600020905b8154815290600101906020018083116106de57829003601f168201915b50505050509080600301549080600401805461071690610ec6565b80601f016020809104026020016040519081016040528092919081815260200182805461074290610ec6565b801561078f5780601f106107645761010080835404028352916020019161078f565b820191906000526020600020905b81548152906001019060200180831161077257829003601f168201915b5050505050908060050154908060060154908060070154908060080160009054906101000a900460ff16908060080160019054906101000a900460ff16908060080160029054906101000a900460ff1690508b565b60065481565b60085481565b60075481565b6000604051905090565b600080fd5b600080fd5b6000819050919050565b61081d8161080a565b811461082857600080fd5b50565b60008135905061083a81610814565b92915050565b600080fd5b600080fd5b6000601f19601f8301169050919050565b7f4e487b7100000000000000000000000000000000000000000000000000000000600052604160045260246000fd5b6108938261084a565b810181811067ffffffffffffffff821117156108b2576108b161085b565b5b80604052505050565b60006108c56107f6565b90506108d1828261088a565b919050565b600067ffffffffffffffff8211156108f1576108f061085b565b5b6108fa8261084a565b9050602081019050919050565b82818337600083830152505050565b6000610929610924846108d6565b6108bb565b90508281526020810184848401111561094557610944610845565b5b610950848285610907565b509392505050565b600082601f83011261096d5761096c610840565b5b813561097d848260208601610916565b91505092915050565b60008115159050919050565b61099b81610986565b81146109a657600080fd5b50565b6000813590506109b881610992565b92915050565b600080600080600080600080610100898b0312156109df576109de610800565b5b60006109ed8b828c0161082b565b985050602089013567ffffffffffffffff811115610a0e57610a0d610805565b5b610a1a8b828c01610958565b9750506040610a2b8b828c0161082b565b965050606089013567ffffffffffffffff811115610a4c57610a4b610805565b5b610a588b828c01610958565b9550506080610a698b828c0161082b565b94505060a0610a7a8b828c0161082b565b93505060c0610a8b8b828c016109a9565b92505060e0610a9c8b828c016109a9565b9150509295985092959890939650565b600060208284031215610ac257610ac1610800565b5b6000610ad08482850161082b565b91505092915050565b610ae28161080a565b82525050565b610af181610986565b82525050565b6000606082019050610b0c6000830186610ad9565b610b196020830185610ad9565b610b266040830184610ae8565b949350505050565b600081519050919050565b600082825260208201905092915050565b60005b83811015610b68578082015181840152602081019050610b4d565b60008484015250505050565b6000610b7f82610b2e565b610b898185610b39565b9350610b99818560208601610b4a565b610ba28161084a565b840191505092915050565b600061010082019050610bc3600083018b610ad9565b8181036020830152610bd5818a610b74565b90508181036040830152610be98189610b74565b90508181036060830152610bfd8188610b74565b9050610c0c6080830187610ad9565b610c1960a0830186610ad9565b610c2660c0830185610ae8565b610c3360e0830184610ad9565b9998505050505050505050565b6000602082019050610c556000830184610ad9565b92915050565b600061016082019050610c71600083018e610ad9565b610c7e602083018d610ad9565b8181036040830152610c90818c610b74565b9050610c9f606083018b610ad9565b8181036080830152610cb1818a610b74565b9050610cc060a0830189610ad9565b610ccd60c0830188610ad9565b610cda60e0830187610ad9565b610ce8610100830186610ae8565b610cf6610120830185610ae8565b610d04610140830184610ae8565b9c9b505050505050505050505050565b7f446f63746f722049642069732077726f6e670000000000000000000000000000600082015250565b6000610d4a601283610b39565b9150610d5582610d14565b602082019050919050565b60006020820190508181036000830152610d7981610d3d565b9050919050565b7f446f63746f72277320646974792074696d652069732066696e69736865640000600082015250565b6000610db6601e83610b39565b9150610dc182610d80565b602082019050919050565b60006020820190508181036000830152610de581610da9565b9050919050565b7f4e487b7100000000000000000000000000000000000000000000000000000000600052601160045260246000fd5b6000610e268261080a565b91507fffffffffffffffffffffffffffffffffffffffffffffffffffffffffffffffff8203610e5857610e57610dec565b5b600182019050919050565b6000610e6e8261080a565b9150610e798361080a565b9250828201905080821115610e9157610e90610dec565b5b92915050565b7f4e487b7100000000000000000000000000000000000000000000000000000000600052602260045260246000fd5b60006002820490506001821680610ede57607f821691505b602082108103610ef157610ef0610e97565b5b50919050565b60008190508160005260206000209050919050565b60006020601f8301049050919050565b600082821b905092915050565b600060088302610f597fffffffffffffffffffffffffffffffffffffffffffffffffffffffffffffffff82610f1c565b610f638683610f1c565b95508019841693508086168417925050509392505050565b6000819050919050565b6000610fa0610f9b610f968461080a565b610f7b565b61080a565b9050919050565b6000819050919050565b610fba83610f85565b610fce610fc682610fa7565b848454610f29565b825550505050565b600090565b610fe3610fd6565b610fee818484610fb1565b505050565b5b8181101561101257611007600082610fdb565b600181019050610ff4565b5050565b601f8211156110575761102881610ef7565b61103184610f0c565b81016020851015611040578190505b61105461104c85610f0c565b830182610ff3565b50505b505050565b600082821c905092915050565b600061107a6000198460080261105c565b1980831691505092915050565b60006110938383611069565b9150826002028217905092915050565b6110ac82610b2e565b67ffffffffffffffff8111156110c5576110c461085b565b5b6110cf8254610ec6565b6110da828285611016565b600060209050601f83116001811461110d57600084156110fb578287015190505b6111058582611087565b86555061116d565b601f19841661111b86610ef7565b60005b828110156111435784890151825560018201915060208501945060208101905061111e565b86831015611160578489015161115c601f891682611069565b8355505b6001600288020188555050505b505050505050565b6000815461118281610ec6565b61118c8186610b39565b945060018216600081146111a757600181146111bd576111f0565b60ff1983168652811515602002860193506111f0565b6111c685610ef7565b60005b838110156111e8578154818901526001820191506020810190506111c9565b808801955050505b50505092915050565b60006101608201905061120f600083018e610ad9565b61121c602083018d610ad9565b818103604083015261122e818c611175565b905061123d606083018b610ad9565b818103608083015261124f818a611175565b905061125e60a0830189610ad9565b61126b60c0830188610ad9565b61127860e0830187610ad9565b611286610100830186610ae8565b611294610120830185610ae8565b6112a2610140830184610ae8565b9c9b50505050505050505050505056fea264697066735822122022293eeefdd88677d882c16aaedce37bd1329389a543d14548a9bef19d0df9a064736f6c63430008130033",
					"opcodes": "PUSH1 0x80 PUSH1 0x40 MSTORE PUSH1 0x1 PUSH1 0x3 SSTORE PUSH1 0x1 PUSH1 0x4 SSTORE PUSH1 0x0 PUSH1 0x5 SSTORE PUSH1 0x0 PUSH1 0x6 SSTORE PUSH1 0x0 PUSH1 0x7 SSTORE PUSH1 0x0 PUSH1 0x8 SSTORE CALLVALUE DUP1 ISZERO PUSH2 0x2E JUMPI PUSH1 0x0 DUP1 REVERT JUMPDEST POP PUSH2 0x12E8 DUP1 PUSH2 0x3E PUSH1 0x0 CODECOPY PUSH1 0x0 RETURN INVALID PUSH1 0x80 PUSH1 0x40 MSTORE CALLVALUE DUP1 ISZERO PUSH2 0x10 JUMPI PUSH1 0x0 DUP1 REVERT JUMPDEST POP PUSH1 0x4 CALLDATASIZE LT PUSH2 0x88 JUMPI PUSH1 0x0 CALLDATALOAD PUSH1 0xE0 SHR DUP1 PUSH4 0x93119A83 GT PUSH2 0x5B JUMPI DUP1 PUSH4 0x93119A83 EQ PUSH2 0x130 JUMPI DUP1 PUSH4 0xA0303C41 EQ PUSH2 0x16A JUMPI DUP1 PUSH4 0xB613E00A EQ PUSH2 0x188 JUMPI DUP1 PUSH4 0xC8F6306D EQ PUSH2 0x1A6 JUMPI PUSH2 0x88 JUMP JUMPDEST DUP1 PUSH4 0x441078A EQ PUSH2 0x8D JUMPI DUP1 PUSH4 0x12E4C274 EQ PUSH2 0xA9 JUMPI DUP1 PUSH4 0x6EFB1B84 EQ PUSH2 0xDB JUMPI DUP1 PUSH4 0x78522BC4 EQ PUSH2 0x112 JUMPI JUMPDEST PUSH1 0x0 DUP1 REVERT JUMPDEST PUSH2 0xA7 PUSH1 0x4 DUP1 CALLDATASIZE SUB DUP2 ADD SWAP1 PUSH2 0xA2 SWAP2 SWAP1 PUSH2 0x9BE JUMP JUMPDEST PUSH2 0x1C4 JUMP JUMPDEST STOP JUMPDEST PUSH2 0xC3 PUSH1 0x4 DUP1 CALLDATASIZE SUB DUP2 ADD SWAP1 PUSH2 0xBE SWAP2 SWAP1 PUSH2 0xAAC JUMP JUMPDEST PUSH2 0x429 JUMP JUMPDEST PUSH1 0x40 MLOAD PUSH2 0xD2 SWAP4 SWAP3 SWAP2 SWAP1 PUSH2 0xAF7 JUMP JUMPDEST PUSH1 0x40 MLOAD DUP1 SWAP2 SUB SWAP1 RETURN JUMPDEST PUSH2 0xF5 PUSH1 0x4 DUP1 CALLDATASIZE SUB DUP2 ADD SWAP1 PUSH2 0xF0 SWAP2 SWAP1 PUSH2 0xAAC JUMP JUMPDEST PUSH2 0x460 JUMP JUMPDEST PUSH1 0x40 MLOAD PUSH2 0x109 SWAP9 SWAP8 SWAP7 SWAP6 SWAP5 SWAP4 SWAP3 SWAP2 SWAP1 PUSH2 0xBAD JUMP JUMPDEST PUSH1 0x40 MLOAD DUP1 SWAP2 SUB SWAP1 RETURN JUMPDEST PUSH2 0x11A PUSH2 0x64D JUMP JUMPDEST PUSH1 0x40 MLOAD PUSH2 0x127 SWAP2 SWAP1 PUSH2 0xC40 JUMP JUMPDEST PUSH1 0x40 MLOAD DUP1 SWAP2 SUB SWAP1 RETURN JUMPDEST PUSH2 0x14A PUSH1 0x4 DUP1 CALLDATASIZE SUB DUP2 ADD SWAP1 PUSH2 0x145 SWAP2 SWAP1 PUSH2 0xAAC JUMP JUMPDEST PUSH2 0x653 JUMP JUMPDEST PUSH1 0x40 MLOAD PUSH2 0x161 SWAP12 SWAP11 SWAP10 SWAP9 SWAP8 SWAP7 SWAP6 SWAP5 SWAP4 SWAP3 SWAP2 SWAP1 PUSH2 0xC5B JUMP JUMPDEST PUSH1 0x40 MLOAD DUP1 SWAP2 SUB SWAP1 RETURN JUMPDEST PUSH2 0x172 PUSH2 0x7E4 JUMP JUMPDEST PUSH1 0x40 MLOAD PUSH2 0x17F SWAP2 SWAP1 PUSH2 0xC40 JUMP JUMPDEST PUSH1 0x40 MLOAD DUP1 SWAP2 SUB SWAP1 RETURN JUMPDEST PUSH2 0x190 PUSH2 0x7EA JUMP JUMPDEST PUSH1 0x40 MLOAD PUSH2 0x19D SWAP2 SWAP1 PUSH2 0xC40 JUMP JUMPDEST PUSH1 0x40 MLOAD DUP1 SWAP2 SUB SWAP1 RETURN JUMPDEST PUSH2 0x1AE PUSH2 0x7F0 JUMP JUMPDEST PUSH1 0x40 MLOAD PUSH2 0x1BB SWAP2 SWAP1 PUSH2 0xC40 JUMP JUMPDEST PUSH1 0x40 MLOAD DUP1 SWAP2 SUB SWAP1 RETURN JUMPDEST DUP3 PUSH1 0x5 SLOAD PUSH1 0x0 DUP1 DUP4 DUP2 MSTORE PUSH1 0x20 ADD SWAP1 DUP2 MSTORE PUSH1 0x20 ADD PUSH1 0x0 KECCAK256 PUSH1 0x0 ADD SLOAD GT ISZERO DUP1 ISZERO PUSH2 0x1ED JUMPI POP PUSH1 0x0 DUP2 EQ ISZERO JUMPDEST PUSH2 0x22C JUMPI PUSH1 0x40 MLOAD PUSH32 0x8C379A000000000000000000000000000000000000000000000000000000000 DUP2 MSTORE PUSH1 0x4 ADD PUSH2 0x223 SWAP1 PUSH2 0xD60 JUMP JUMPDEST PUSH1 0x40 MLOAD DUP1 SWAP2 SUB SWAP1 REVERT JUMPDEST DUP4 TIMESTAMP PUSH1 0x0 DUP1 DUP4 DUP2 MSTORE PUSH1 0x20 ADD SWAP1 DUP2 MSTORE PUSH1 0x20 ADD PUSH1 0x0 KECCAK256 PUSH1 0x5 ADD SLOAD LT ISZERO PUSH2 0x285 JUMPI PUSH1 0x40 MLOAD PUSH32 0x8C379A000000000000000000000000000000000000000000000000000000000 DUP2 MSTORE PUSH1 0x4 ADD PUSH2 0x27C SWAP1 PUSH2 0xDCC JUMP JUMPDEST PUSH1 0x40 MLOAD DUP1 SWAP2 SUB SWAP1 REVERT JUMPDEST PUSH1 0x0 PUSH1 0x1 PUSH1 0x0 PUSH1 0x6 PUSH1 0x0 DUP2 SLOAD PUSH2 0x29A SWAP1 PUSH2 0xE1B JUMP JUMPDEST SWAP2 SWAP1 POP DUP2 SWAP1 SSTORE DUP2 MSTORE PUSH1 0x20 ADD SWAP1 DUP2 MSTORE PUSH1 0x20 ADD PUSH1 0x0 KECCAK256 SWAP1 POP DUP11 TIMESTAMP PUSH2 0x2BC SWAP2 SWAP1 PUSH2 0xE63 JUMP JUMPDEST DUP2 PUSH1 0x0 ADD DUP2 SWAP1 SSTORE POP PUSH1 0x6 SLOAD DUP2 PUSH1 0x1 ADD DUP2 SWAP1 SSTORE POP DUP10 DUP2 PUSH1 0x2 ADD SWAP1 DUP2 PUSH2 0x2E0 SWAP2 SWAP1 PUSH2 0x10A3 JUMP JUMPDEST POP DUP9 DUP2 PUSH1 0x3 ADD DUP2 SWAP1 SSTORE POP DUP8 DUP2 PUSH1 0x4 ADD SWAP1 DUP2 PUSH2 0x2FB SWAP2 SWAP1 PUSH2 0x10A3 JUMP JUMPDEST POP PUSH1 0x8 PUSH1 0x0 DUP2 SLOAD PUSH2 0x30B SWAP1 PUSH2 0xE1B JUMP JUMPDEST SWAP2 SWAP1 POP DUP2 SWAP1 SSTORE DUP2 PUSH1 0x5 ADD DUP2 SWAP1 SSTORE POP DUP7 DUP2 PUSH1 0x6 ADD DUP2 SWAP1 SSTORE POP DUP6 DUP2 PUSH1 0x7 ADD DUP2 SWAP1 SSTORE POP DUP5 DUP2 PUSH1 0x8 ADD PUSH1 0x0 PUSH2 0x100 EXP DUP2 SLOAD DUP2 PUSH1 0xFF MUL NOT AND SWAP1 DUP4 ISZERO ISZERO MUL OR SWAP1 SSTORE POP DUP4 DUP2 PUSH1 0x8 ADD PUSH1 0x1 PUSH2 0x100 EXP DUP2 SLOAD DUP2 PUSH1 0xFF MUL NOT AND SWAP1 DUP4 ISZERO ISZERO MUL OR SWAP1 SSTORE POP PUSH1 0x0 DUP2 PUSH1 0x8 ADD PUSH1 0x2 PUSH2 0x100 EXP DUP2 SLOAD DUP2 PUSH1 0xFF MUL NOT AND SWAP1 DUP4 ISZERO ISZERO MUL OR SWAP1 SSTORE POP PUSH32 0x38228B678551390C21FB8C2C678E7211EECEE3BC1166504E3B41FB2EB18C9151 DUP2 PUSH1 0x0 ADD SLOAD DUP3 PUSH1 0x1 ADD SLOAD DUP4 PUSH1 0x2 ADD DUP5 PUSH1 0x3 ADD SLOAD DUP6 PUSH1 0x4 ADD DUP7 PUSH1 0x5 ADD SLOAD DUP8 PUSH1 0x6 ADD SLOAD DUP9 PUSH1 0x7 ADD SLOAD DUP10 PUSH1 0x8 ADD PUSH1 0x0 SWAP1 SLOAD SWAP1 PUSH2 0x100 EXP SWAP1 DIV PUSH1 0xFF AND DUP11 PUSH1 0x8 ADD PUSH1 0x1 SWAP1 SLOAD SWAP1 PUSH2 0x100 EXP SWAP1 DIV PUSH1 0xFF AND DUP12 PUSH1 0x8 ADD PUSH1 0x2 SWAP1 SLOAD SWAP1 PUSH2 0x100 EXP SWAP1 DIV PUSH1 0xFF AND PUSH1 0x40 MLOAD PUSH2 0x414 SWAP12 SWAP11 SWAP10 SWAP9 SWAP8 SWAP7 SWAP6 SWAP5 SWAP4 SWAP3 SWAP2 SWAP1 PUSH2 0x11F9 JUMP JUMPDEST PUSH1 0x40 MLOAD DUP1 SWAP2 SUB SWAP1 LOG1 POP POP POP POP POP POP POP POP POP POP POP JUMP JUMPDEST PUSH1 0x2 PUSH1 0x20 MSTORE DUP1 PUSH1 0x0 MSTORE PUSH1 0x40 PUSH1 0x0 KECCAK256 PUSH1 0x0 SWAP2 POP SWAP1 POP DUP1 PUSH1 0x0 ADD SLOAD SWAP1 DUP1 PUSH1 0x1 ADD SLOAD SWAP1 DUP1 PUSH1 0x2 ADD PUSH1 0x0 SWAP1 SLOAD SWAP1 PUSH2 0x100 EXP SWAP1 DIV PUSH1 0xFF AND SWAP1 POP DUP4 JUMP JUMPDEST PUSH1 0x0 PUSH1 0x20 MSTORE DUP1 PUSH1 0x0 MSTORE PUSH1 0x40 PUSH1 0x0 KECCAK256 PUSH1 0x0 SWAP2 POP SWAP1 POP DUP1 PUSH1 0x0 ADD SLOAD SWAP1 DUP1 PUSH1 0x1 ADD DUP1 SLOAD PUSH2 0x489 SWAP1 PUSH2 0xEC6 JUMP JUMPDEST DUP1 PUSH1 0x1F ADD PUSH1 0x20 DUP1 SWAP2 DIV MUL PUSH1 0x20 ADD PUSH1 0x40 MLOAD SWAP1 DUP2 ADD PUSH1 0x40 MSTORE DUP1 SWAP3 SWAP2 SWAP1 DUP2 DUP2 MSTORE PUSH1 0x20 ADD DUP3 DUP1 SLOAD PUSH2 0x4B5 SWAP1 PUSH2 0xEC6 JUMP JUMPDEST DUP1 ISZERO PUSH2 0x502 JUMPI DUP1 PUSH1 0x1F LT PUSH2 0x4D7 JUMPI PUSH2 0x100 DUP1 DUP4 SLOAD DIV MUL DUP4 MSTORE SWAP2 PUSH1 0x20 ADD SWAP2 PUSH2 0x502 JUMP JUMPDEST DUP3 ADD SWAP2 SWAP1 PUSH1 0x0 MSTORE PUSH1 0x20 PUSH1 0x0 KECCAK256 SWAP1 JUMPDEST DUP2 SLOAD DUP2 MSTORE SWAP1 PUSH1 0x1 ADD SWAP1 PUSH1 0x20 ADD DUP1 DUP4 GT PUSH2 0x4E5 JUMPI DUP3 SWAP1 SUB PUSH1 0x1F AND DUP3 ADD SWAP2 JUMPDEST POP POP POP POP POP SWAP1 DUP1 PUSH1 0x2 ADD DUP1 SLOAD PUSH2 0x517 SWAP1 PUSH2 0xEC6 JUMP JUMPDEST DUP1 PUSH1 0x1F ADD PUSH1 0x20 DUP1 SWAP2 DIV MUL PUSH1 0x20 ADD PUSH1 0x40 MLOAD SWAP1 DUP2 ADD PUSH1 0x40 MSTORE DUP1 SWAP3 SWAP2 SWAP1 DUP2 DUP2 MSTORE PUSH1 0x20 ADD DUP3 DUP1 SLOAD PUSH2 0x543 SWAP1 PUSH2 0xEC6 JUMP JUMPDEST DUP1 ISZERO PUSH2 0x590 JUMPI DUP1 PUSH1 0x1F LT PUSH2 0x565 JUMPI PUSH2 0x100 DUP1 DUP4 SLOAD DIV MUL DUP4 MSTORE SWAP2 PUSH1 0x20 ADD SWAP2 PUSH2 0x590 JUMP JUMPDEST DUP3 ADD SWAP2 SWAP1 PUSH1 0x0 MSTORE PUSH1 0x20 PUSH1 0x0 KECCAK256 SWAP1 JUMPDEST DUP2 SLOAD DUP2 MSTORE SWAP1 PUSH1 0x1 ADD SWAP1 PUSH1 0x20 ADD DUP1 DUP4 GT PUSH2 0x573 JUMPI DUP3 SWAP1 SUB PUSH1 0x1F AND DUP3 ADD SWAP2 JUMPDEST POP POP POP POP POP SWAP1 DUP1 PUSH1 0x3 ADD DUP1 SLOAD PUSH2 0x5A5 SWAP1 PUSH2 0xEC6 JUMP JUMPDEST DUP1 PUSH1 0x1F ADD PUSH1 0x20 DUP1 SWAP2 DIV MUL PUSH1 0x20 ADD PUSH1 0x40 MLOAD SWAP1 DUP2 ADD PUSH1 0x40 MSTORE DUP1 SWAP3 SWAP2 SWAP1 DUP2 DUP2 MSTORE PUSH1 0x20 ADD DUP3 DUP1 SLOAD PUSH2 0x5D1 SWAP1 PUSH2 0xEC6 JUMP JUMPDEST DUP1 ISZERO PUSH2 0x61E JUMPI DUP1 PUSH1 0x1F LT PUSH2 0x5F3 JUMPI PUSH2 0x100 DUP1 DUP4 SLOAD DIV MUL DUP4 MSTORE SWAP2 PUSH1 0x20 ADD SWAP2 PUSH2 0x61E JUMP JUMPDEST DUP3 ADD SWAP2 SWAP1 PUSH1 0x0 MSTORE PUSH1 0x20 PUSH1 0x0 KECCAK256 SWAP1 JUMPDEST DUP2 SLOAD DUP2 MSTORE SWAP1 PUSH1 0x1 ADD SWAP1 PUSH1 0x20 ADD DUP1 DUP4 GT PUSH2 0x601 JUMPI DUP3 SWAP1 SUB PUSH1 0x1F AND DUP3 ADD SWAP2 JUMPDEST POP POP POP POP POP SWAP1 DUP1 PUSH1 0x4 ADD SLOAD SWAP1 DUP1 PUSH1 0x5 ADD SLOAD SWAP1 DUP1 PUSH1 0x6 ADD PUSH1 0x0 SWAP1 SLOAD SWAP1 PUSH2 0x100 EXP SWAP1 DIV PUSH1 0xFF AND SWAP1 DUP1 PUSH1 0x7 ADD SLOAD SWAP1 POP DUP9 JUMP JUMPDEST PUSH1 0x5 SLOAD DUP2 JUMP JUMPDEST PUSH1 0x1 PUSH1 0x20 MSTORE DUP1 PUSH1 0x0 MSTORE PUSH1 0x40 PUSH1 0x0 KECCAK256 PUSH1 0x0 SWAP2 POP SWAP1 POP DUP1 PUSH1 0x0 ADD SLOAD SWAP1 DUP1 PUSH1 0x1 ADD SLOAD SWAP1 DUP1 PUSH1 0x2 ADD DUP1 SLOAD PUSH2 0x682 SWAP1 PUSH2 0xEC6 JUMP JUMPDEST DUP1 PUSH1 0x1F ADD PUSH1 0x20 DUP1 SWAP2 DIV MUL PUSH1 0x20 ADD PUSH1 0x40 MLOAD SWAP1 DUP2 ADD PUSH1 0x40 MSTORE DUP1 SWAP3 SWAP2 SWAP1 DUP2 DUP2 MSTORE PUSH1 0x20 ADD DUP3 DUP1 SLOAD PUSH2 0x6AE SWAP1 PUSH2 0xEC6 JUMP JUMPDEST DUP1 ISZERO PUSH2 0x6FB JUMPI DUP1 PUSH1 0x1F LT PUSH2 0x6D0 JUMPI PUSH2 0x100 DUP1 DUP4 SLOAD DIV MUL DUP4 MSTORE SWAP2 PUSH1 0x20 ADD SWAP2 PUSH2 0x6FB JUMP JUMPDEST DUP3 ADD SWAP2 SWAP1 PUSH1 0x0 MSTORE PUSH1 0x20 PUSH1 0x0 KECCAK256 SWAP1 JUMPDEST DUP2 SLOAD DUP2 MSTORE SWAP1 PUSH1 0x1 ADD SWAP1 PUSH1 0x20 ADD DUP1 DUP4 GT PUSH2 0x6DE JUMPI DUP3 SWAP1 SUB PUSH1 0x1F AND DUP3 ADD SWAP2 JUMPDEST POP POP POP POP POP SWAP1 DUP1 PUSH1 0x3 ADD SLOAD SWAP1 DUP1 PUSH1 0x4 ADD DUP1 SLOAD PUSH2 0x716 SWAP1 PUSH2 0xEC6 JUMP JUMPDEST DUP1 PUSH1 0x1F ADD PUSH1 0x20 DUP1 SWAP2 DIV MUL PUSH1 0x20 ADD PUSH1 0x40 MLOAD SWAP1 DUP2 ADD PUSH1 0x40 MSTORE DUP1 SWAP3 SWAP2 SWAP1 DUP2 DUP2 MSTORE PUSH1 0x20 ADD DUP3 DUP1 SLOAD PUSH2 0x742 SWAP1 PUSH2 0xEC6 JUMP JUMPDEST DUP1 ISZERO PUSH2 0x78F JUMPI DUP1 PUSH1 0x1F LT PUSH2 0x764 JUMPI PUSH2 0x100 DUP1 DUP4 SLOAD DIV MUL DUP4 MSTORE SWAP2 PUSH1 0x20 ADD SWAP2 PUSH2 0x78F JUMP JUMPDEST DUP3 ADD SWAP2 SWAP1 PUSH1 0x0 MSTORE PUSH1 0x20 PUSH1 0x0 KECCAK256 SWAP1 JUMPDEST DUP2 SLOAD DUP2 MSTORE SWAP1 PUSH1 0x1 ADD SWAP1 PUSH1 0x20 ADD DUP1 DUP4 GT PUSH2 0x772 JUMPI DUP3 SWAP1 SUB PUSH1 0x1F AND DUP3 ADD SWAP2 JUMPDEST POP POP POP POP POP SWAP1 DUP1 PUSH1 0x5 ADD SLOAD SWAP1 DUP1 PUSH1 0x6 ADD SLOAD SWAP1 DUP1 PUSH1 0x7 ADD SLOAD SWAP1 DUP1 PUSH1 0x8 ADD PUSH1 0x0 SWAP1 SLOAD SWAP1 PUSH2 0x100 EXP SWAP1 DIV PUSH1 0xFF AND SWAP1 DUP1 PUSH1 0x8 ADD PUSH1 0x1 SWAP1 SLOAD SWAP1 PUSH2 0x100 EXP SWAP1 DIV PUSH1 0xFF AND SWAP1 DUP1 PUSH1 0x8 ADD PUSH1 0x2 SWAP1 SLOAD SWAP1 PUSH2 0x100 EXP SWAP1 DIV PUSH1 0xFF AND SWAP1 POP DUP12 JUMP JUMPDEST PUSH1 0x6 SLOAD DUP2 JUMP JUMPDEST PUSH1 0x8 SLOAD DUP2 JUMP JUMPDEST PUSH1 0x7 SLOAD DUP2 JUMP JUMPDEST PUSH1 0x0 PUSH1 0x40 MLOAD SWAP1 POP SWAP1 JUMP JUMPDEST PUSH1 0x0 DUP1 REVERT JUMPDEST PUSH1 0x0 DUP1 REVERT JUMPDEST PUSH1 0x0 DUP2 SWAP1 POP SWAP2 SWAP1 POP JUMP JUMPDEST PUSH2 0x81D DUP2 PUSH2 0x80A JUMP JUMPDEST DUP2 EQ PUSH2 0x828 JUMPI PUSH1 0x0 DUP1 REVERT JUMPDEST POP JUMP JUMPDEST PUSH1 0x0 DUP2 CALLDATALOAD SWAP1 POP PUSH2 0x83A DUP2 PUSH2 0x814 JUMP JUMPDEST SWAP3 SWAP2 POP POP JUMP JUMPDEST PUSH1 0x0 DUP1 REVERT JUMPDEST PUSH1 0x0 DUP1 REVERT JUMPDEST PUSH1 0x0 PUSH1 0x1F NOT PUSH1 0x1F DUP4 ADD AND SWAP1 POP SWAP2 SWAP1 POP JUMP JUMPDEST PUSH32 0x4E487B7100000000000000000000000000000000000000000000000000000000 PUSH1 0x0 MSTORE PUSH1 0x41 PUSH1 0x4 MSTORE PUSH1 0x24 PUSH1 0x0 REVERT JUMPDEST PUSH2 0x893 DUP3 PUSH2 0x84A JUMP JUMPDEST DUP2 ADD DUP2 DUP2 LT PUSH8 0xFFFFFFFFFFFFFFFF DUP3 GT OR ISZERO PUSH2 0x8B2 JUMPI PUSH2 0x8B1 PUSH2 0x85B JUMP JUMPDEST JUMPDEST DUP1 PUSH1 0x40 MSTORE POP POP POP JUMP JUMPDEST PUSH1 0x0 PUSH2 0x8C5 PUSH2 0x7F6 JUMP JUMPDEST SWAP1 POP PUSH2 0x8D1 DUP3 DUP3 PUSH2 0x88A JUMP JUMPDEST SWAP2 SWAP1 POP JUMP JUMPDEST PUSH1 0x0 PUSH8 0xFFFFFFFFFFFFFFFF DUP3 GT ISZERO PUSH2 0x8F1 JUMPI PUSH2 0x8F0 PUSH2 0x85B JUMP JUMPDEST JUMPDEST PUSH2 0x8FA DUP3 PUSH2 0x84A JUMP JUMPDEST SWAP1 POP PUSH1 0x20 DUP2 ADD SWAP1 POP SWAP2 SWAP1 POP JUMP JUMPDEST DUP3 DUP2 DUP4 CALLDATACOPY PUSH1 0x0 DUP4 DUP4 ADD MSTORE POP POP POP JUMP JUMPDEST PUSH1 0x0 PUSH2 0x929 PUSH2 0x924 DUP5 PUSH2 0x8D6 JUMP JUMPDEST PUSH2 0x8BB JUMP JUMPDEST SWAP1 POP DUP3 DUP2 MSTORE PUSH1 0x20 DUP2 ADD DUP5 DUP5 DUP5 ADD GT ISZERO PUSH2 0x945 JUMPI PUSH2 0x944 PUSH2 0x845 JUMP JUMPDEST JUMPDEST PUSH2 0x950 DUP5 DUP3 DUP6 PUSH2 0x907 JUMP JUMPDEST POP SWAP4 SWAP3 POP POP POP JUMP JUMPDEST PUSH1 0x0 DUP3 PUSH1 0x1F DUP4 ADD SLT PUSH2 0x96D JUMPI PUSH2 0x96C PUSH2 0x840 JUMP JUMPDEST JUMPDEST DUP2 CALLDATALOAD PUSH2 0x97D DUP5 DUP3 PUSH1 0x20 DUP7 ADD PUSH2 0x916 JUMP JUMPDEST SWAP2 POP POP SWAP3 SWAP2 POP POP JUMP JUMPDEST PUSH1 0x0 DUP2 ISZERO ISZERO SWAP1 POP SWAP2 SWAP1 POP JUMP JUMPDEST PUSH2 0x99B DUP2 PUSH2 0x986 JUMP JUMPDEST DUP2 EQ PUSH2 0x9A6 JUMPI PUSH1 0x0 DUP1 REVERT JUMPDEST POP JUMP JUMPDEST PUSH1 0x0 DUP2 CALLDATALOAD SWAP1 POP PUSH2 0x9B8 DUP2 PUSH2 0x992 JUMP JUMPDEST SWAP3 SWAP2 POP POP JUMP JUMPDEST PUSH1 0x0 DUP1 PUSH1 0x0 DUP1 PUSH1 0x0 DUP1 PUSH1 0x0 DUP1 PUSH2 0x100 DUP10 DUP12 SUB SLT ISZERO PUSH2 0x9DF JUMPI PUSH2 0x9DE PUSH2 0x800 JUMP JUMPDEST JUMPDEST PUSH1 0x0 PUSH2 0x9ED DUP12 DUP3 DUP13 ADD PUSH2 0x82B JUMP JUMPDEST SWAP9 POP POP PUSH1 0x20 DUP10 ADD CALLDATALOAD PUSH8 0xFFFFFFFFFFFFFFFF DUP2 GT ISZERO PUSH2 0xA0E JUMPI PUSH2 0xA0D PUSH2 0x805 JUMP JUMPDEST JUMPDEST PUSH2 0xA1A DUP12 DUP3 DUP13 ADD PUSH2 0x958 JUMP JUMPDEST SWAP8 POP POP PUSH1 0x40 PUSH2 0xA2B DUP12 DUP3 DUP13 ADD PUSH2 0x82B JUMP JUMPDEST SWAP7 POP POP PUSH1 0x60 DUP10 ADD CALLDATALOAD PUSH8 0xFFFFFFFFFFFFFFFF DUP2 GT ISZERO PUSH2 0xA4C JUMPI PUSH2 0xA4B PUSH2 0x805 JUMP JUMPDEST JUMPDEST PUSH2 0xA58 DUP12 DUP3 DUP13 ADD PUSH2 0x958 JUMP JUMPDEST SWAP6 POP POP PUSH1 0x80 PUSH2 0xA69 DUP12 DUP3 DUP13 ADD PUSH2 0x82B JUMP JUMPDEST SWAP5 POP POP PUSH1 0xA0 PUSH2 0xA7A DUP12 DUP3 DUP13 ADD PUSH2 0x82B JUMP JUMPDEST SWAP4 POP POP PUSH1 0xC0 PUSH2 0xA8B DUP12 DUP3 DUP13 ADD PUSH2 0x9A9 JUMP JUMPDEST SWAP3 POP POP PUSH1 0xE0 PUSH2 0xA9C DUP12 DUP3 DUP13 ADD PUSH2 0x9A9 JUMP JUMPDEST SWAP2 POP POP SWAP3 SWAP6 SWAP9 POP SWAP3 SWAP6 SWAP9 SWAP1 SWAP4 SWAP7 POP JUMP JUMPDEST PUSH1 0x0 PUSH1 0x20 DUP3 DUP5 SUB SLT ISZERO PUSH2 0xAC2 JUMPI PUSH2 0xAC1 PUSH2 0x800 JUMP JUMPDEST JUMPDEST PUSH1 0x0 PUSH2 0xAD0 DUP5 DUP3 DUP6 ADD PUSH2 0x82B JUMP JUMPDEST SWAP2 POP POP SWAP3 SWAP2 POP POP JUMP JUMPDEST PUSH2 0xAE2 DUP2 PUSH2 0x80A JUMP JUMPDEST DUP3 MSTORE POP POP JUMP JUMPDEST PUSH2 0xAF1 DUP2 PUSH2 0x986 JUMP JUMPDEST DUP3 MSTORE POP POP JUMP JUMPDEST PUSH1 0x0 PUSH1 0x60 DUP3 ADD SWAP1 POP PUSH2 0xB0C PUSH1 0x0 DUP4 ADD DUP7 PUSH2 0xAD9 JUMP JUMPDEST PUSH2 0xB19 PUSH1 0x20 DUP4 ADD DUP6 PUSH2 0xAD9 JUMP JUMPDEST PUSH2 0xB26 PUSH1 0x40 DUP4 ADD DUP5 PUSH2 0xAE8 JUMP JUMPDEST SWAP5 SWAP4 POP POP POP POP JUMP JUMPDEST PUSH1 0x0 DUP2 MLOAD SWAP1 POP SWAP2 SWAP1 POP JUMP JUMPDEST PUSH1 0x0 DUP3 DUP3 MSTORE PUSH1 0x20 DUP3 ADD SWAP1 POP SWAP3 SWAP2 POP POP JUMP JUMPDEST PUSH1 0x0 JUMPDEST DUP4 DUP2 LT ISZERO PUSH2 0xB68 JUMPI DUP1 DUP3 ADD MLOAD DUP2 DUP5 ADD MSTORE PUSH1 0x20 DUP2 ADD SWAP1 POP PUSH2 0xB4D JUMP JUMPDEST PUSH1 0x0 DUP5 DUP5 ADD MSTORE POP POP POP POP JUMP JUMPDEST PUSH1 0x0 PUSH2 0xB7F DUP3 PUSH2 0xB2E JUMP JUMPDEST PUSH2 0xB89 DUP2 DUP6 PUSH2 0xB39 JUMP JUMPDEST SWAP4 POP PUSH2 0xB99 DUP2 DUP6 PUSH1 0x20 DUP7 ADD PUSH2 0xB4A JUMP JUMPDEST PUSH2 0xBA2 DUP2 PUSH2 0x84A JUMP JUMPDEST DUP5 ADD SWAP2 POP POP SWAP3 SWAP2 POP POP JUMP JUMPDEST PUSH1 0x0 PUSH2 0x100 DUP3 ADD SWAP1 POP PUSH2 0xBC3 PUSH1 0x0 DUP4 ADD DUP12 PUSH2 0xAD9 JUMP JUMPDEST DUP2 DUP2 SUB PUSH1 0x20 DUP4 ADD MSTORE PUSH2 0xBD5 DUP2 DUP11 PUSH2 0xB74 JUMP JUMPDEST SWAP1 POP DUP2 DUP2 SUB PUSH1 0x40 DUP4 ADD MSTORE PUSH2 0xBE9 DUP2 DUP10 PUSH2 0xB74 JUMP JUMPDEST SWAP1 POP DUP2 DUP2 SUB PUSH1 0x60 DUP4 ADD MSTORE PUSH2 0xBFD DUP2 DUP9 PUSH2 0xB74 JUMP JUMPDEST SWAP1 POP PUSH2 0xC0C PUSH1 0x80 DUP4 ADD DUP8 PUSH2 0xAD9 JUMP JUMPDEST PUSH2 0xC19 PUSH1 0xA0 DUP4 ADD DUP7 PUSH2 0xAD9 JUMP JUMPDEST PUSH2 0xC26 PUSH1 0xC0 DUP4 ADD DUP6 PUSH2 0xAE8 JUMP JUMPDEST PUSH2 0xC33 PUSH1 0xE0 DUP4 ADD DUP5 PUSH2 0xAD9 JUMP JUMPDEST SWAP10 SWAP9 POP POP POP POP POP POP POP POP POP JUMP JUMPDEST PUSH1 0x0 PUSH1 0x20 DUP3 ADD SWAP1 POP PUSH2 0xC55 PUSH1 0x0 DUP4 ADD DUP5 PUSH2 0xAD9 JUMP JUMPDEST SWAP3 SWAP2 POP POP JUMP JUMPDEST PUSH1 0x0 PUSH2 0x160 DUP3 ADD SWAP1 POP PUSH2 0xC71 PUSH1 0x0 DUP4 ADD DUP15 PUSH2 0xAD9 JUMP JUMPDEST PUSH2 0xC7E PUSH1 0x20 DUP4 ADD DUP14 PUSH2 0xAD9 JUMP JUMPDEST DUP2 DUP2 SUB PUSH1 0x40 DUP4 ADD MSTORE PUSH2 0xC90 DUP2 DUP13 PUSH2 0xB74 JUMP JUMPDEST SWAP1 POP PUSH2 0xC9F PUSH1 0x60 DUP4 ADD DUP12 PUSH2 0xAD9 JUMP JUMPDEST DUP2 DUP2 SUB PUSH1 0x80 DUP4 ADD MSTORE PUSH2 0xCB1 DUP2 DUP11 PUSH2 0xB74 JUMP JUMPDEST SWAP1 POP PUSH2 0xCC0 PUSH1 0xA0 DUP4 ADD DUP10 PUSH2 0xAD9 JUMP JUMPDEST PUSH2 0xCCD PUSH1 0xC0 DUP4 ADD DUP9 PUSH2 0xAD9 JUMP JUMPDEST PUSH2 0xCDA PUSH1 0xE0 DUP4 ADD DUP8 PUSH2 0xAD9 JUMP JUMPDEST PUSH2 0xCE8 PUSH2 0x100 DUP4 ADD DUP7 PUSH2 0xAE8 JUMP JUMPDEST PUSH2 0xCF6 PUSH2 0x120 DUP4 ADD DUP6 PUSH2 0xAE8 JUMP JUMPDEST PUSH2 0xD04 PUSH2 0x140 DUP4 ADD DUP5 PUSH2 0xAE8 JUMP JUMPDEST SWAP13 SWAP12 POP POP POP POP POP POP POP POP POP POP POP POP JUMP JUMPDEST PUSH32 0x446F63746F722049642069732077726F6E670000000000000000000000000000 PUSH1 0x0 DUP3 ADD MSTORE POP JUMP JUMPDEST PUSH1 0x0 PUSH2 0xD4A PUSH1 0x12 DUP4 PUSH2 0xB39 JUMP JUMPDEST SWAP2 POP PUSH2 0xD55 DUP3 PUSH2 0xD14 JUMP JUMPDEST PUSH1 0x20 DUP3 ADD SWAP1 POP SWAP2 SWAP1 POP JUMP JUMPDEST PUSH1 0x0 PUSH1 0x20 DUP3 ADD SWAP1 POP DUP2 DUP2 SUB PUSH1 0x0 DUP4 ADD MSTORE PUSH2 0xD79 DUP2 PUSH2 0xD3D JUMP JUMPDEST SWAP1 POP SWAP2 SWAP1 POP JUMP JUMPDEST PUSH32 0x446F63746F72277320646974792074696D652069732066696E69736865640000 PUSH1 0x0 DUP3 ADD MSTORE POP JUMP JUMPDEST PUSH1 0x0 PUSH2 0xDB6 PUSH1 0x1E DUP4 PUSH2 0xB39 JUMP JUMPDEST SWAP2 POP PUSH2 0xDC1 DUP3 PUSH2 0xD80 JUMP JUMPDEST PUSH1 0x20 DUP3 ADD SWAP1 POP SWAP2 SWAP1 POP JUMP JUMPDEST PUSH1 0x0 PUSH1 0x20 DUP3 ADD SWAP1 POP DUP2 DUP2 SUB PUSH1 0x0 DUP4 ADD MSTORE PUSH2 0xDE5 DUP2 PUSH2 0xDA9 JUMP JUMPDEST SWAP1 POP SWAP2 SWAP1 POP JUMP JUMPDEST PUSH32 0x4E487B7100000000000000000000000000000000000000000000000000000000 PUSH1 0x0 MSTORE PUSH1 0x11 PUSH1 0x4 MSTORE PUSH1 0x24 PUSH1 0x0 REVERT JUMPDEST PUSH1 0x0 PUSH2 0xE26 DUP3 PUSH2 0x80A JUMP JUMPDEST SWAP2 POP PUSH32 0xFFFFFFFFFFFFFFFFFFFFFFFFFFFFFFFFFFFFFFFFFFFFFFFFFFFFFFFFFFFFFFFF DUP3 SUB PUSH2 0xE58 JUMPI PUSH2 0xE57 PUSH2 0xDEC JUMP JUMPDEST JUMPDEST PUSH1 0x1 DUP3 ADD SWAP1 POP SWAP2 SWAP1 POP JUMP JUMPDEST PUSH1 0x0 PUSH2 0xE6E DUP3 PUSH2 0x80A JUMP JUMPDEST SWAP2 POP PUSH2 0xE79 DUP4 PUSH2 0x80A JUMP JUMPDEST SWAP3 POP DUP3 DUP3 ADD SWAP1 POP DUP1 DUP3 GT ISZERO PUSH2 0xE91 JUMPI PUSH2 0xE90 PUSH2 0xDEC JUMP JUMPDEST JUMPDEST SWAP3 SWAP2 POP POP JUMP JUMPDEST PUSH32 0x4E487B7100000000000000000000000000000000000000000000000000000000 PUSH1 0x0 MSTORE PUSH1 0x22 PUSH1 0x4 MSTORE PUSH1 0x24 PUSH1 0x0 REVERT JUMPDEST PUSH1 0x0 PUSH1 0x2 DUP3 DIV SWAP1 POP PUSH1 0x1 DUP3 AND DUP1 PUSH2 0xEDE JUMPI PUSH1 0x7F DUP3 AND SWAP2 POP JUMPDEST PUSH1 0x20 DUP3 LT DUP2 SUB PUSH2 0xEF1 JUMPI PUSH2 0xEF0 PUSH2 0xE97 JUMP JUMPDEST JUMPDEST POP SWAP2 SWAP1 POP JUMP JUMPDEST PUSH1 0x0 DUP2 SWAP1 POP DUP2 PUSH1 0x0 MSTORE PUSH1 0x20 PUSH1 0x0 KECCAK256 SWAP1 POP SWAP2 SWAP1 POP JUMP JUMPDEST PUSH1 0x0 PUSH1 0x20 PUSH1 0x1F DUP4 ADD DIV SWAP1 POP SWAP2 SWAP1 POP JUMP JUMPDEST PUSH1 0x0 DUP3 DUP3 SHL SWAP1 POP SWAP3 SWAP2 POP POP JUMP JUMPDEST PUSH1 0x0 PUSH1 0x8 DUP4 MUL PUSH2 0xF59 PUSH32 0xFFFFFFFFFFFFFFFFFFFFFFFFFFFFFFFFFFFFFFFFFFFFFFFFFFFFFFFFFFFFFFFF DUP3 PUSH2 0xF1C JUMP JUMPDEST PUSH2 0xF63 DUP7 DUP4 PUSH2 0xF1C JUMP JUMPDEST SWAP6 POP DUP1 NOT DUP5 AND SWAP4 POP DUP1 DUP7 AND DUP5 OR SWAP3 POP POP POP SWAP4 SWAP3 POP POP POP JUMP JUMPDEST PUSH1 0x0 DUP2 SWAP1 POP SWAP2 SWAP1 POP JUMP JUMPDEST PUSH1 0x0 PUSH2 0xFA0 PUSH2 0xF9B PUSH2 0xF96 DUP5 PUSH2 0x80A JUMP JUMPDEST PUSH2 0xF7B JUMP JUMPDEST PUSH2 0x80A JUMP JUMPDEST SWAP1 POP SWAP2 SWAP1 POP JUMP JUMPDEST PUSH1 0x0 DUP2 SWAP1 POP SWAP2 SWAP1 POP JUMP JUMPDEST PUSH2 0xFBA DUP4 PUSH2 0xF85 JUMP JUMPDEST PUSH2 0xFCE PUSH2 0xFC6 DUP3 PUSH2 0xFA7 JUMP JUMPDEST DUP5 DUP5 SLOAD PUSH2 0xF29 JUMP JUMPDEST DUP3 SSTORE POP POP POP POP JUMP JUMPDEST PUSH1 0x0 SWAP1 JUMP JUMPDEST PUSH2 0xFE3 PUSH2 0xFD6 JUMP JUMPDEST PUSH2 0xFEE DUP2 DUP5 DUP5 PUSH2 0xFB1 JUMP JUMPDEST POP POP POP JUMP JUMPDEST JUMPDEST DUP2 DUP2 LT ISZERO PUSH2 0x1012 JUMPI PUSH2 0x1007 PUSH1 0x0 DUP3 PUSH2 0xFDB JUMP JUMPDEST PUSH1 0x1 DUP2 ADD SWAP1 POP PUSH2 0xFF4 JUMP JUMPDEST POP POP JUMP JUMPDEST PUSH1 0x1F DUP3 GT ISZERO PUSH2 0x1057 JUMPI PUSH2 0x1028 DUP2 PUSH2 0xEF7 JUMP JUMPDEST PUSH2 0x1031 DUP5 PUSH2 0xF0C JUMP JUMPDEST DUP2 ADD PUSH1 0x20 DUP6 LT ISZERO PUSH2 0x1040 JUMPI DUP2 SWAP1 POP JUMPDEST PUSH2 0x1054 PUSH2 0x104C DUP6 PUSH2 0xF0C JUMP JUMPDEST DUP4 ADD DUP3 PUSH2 0xFF3 JUMP JUMPDEST POP POP JUMPDEST POP POP POP JUMP JUMPDEST PUSH1 0x0 DUP3 DUP3 SHR SWAP1 POP SWAP3 SWAP2 POP POP JUMP JUMPDEST PUSH1 0x0 PUSH2 0x107A PUSH1 0x0 NOT DUP5 PUSH1 0x8 MUL PUSH2 0x105C JUMP JUMPDEST NOT DUP1 DUP4 AND SWAP2 POP POP SWAP3 SWAP2 POP POP JUMP JUMPDEST PUSH1 0x0 PUSH2 0x1093 DUP4 DUP4 PUSH2 0x1069 JUMP JUMPDEST SWAP2 POP DUP3 PUSH1 0x2 MUL DUP3 OR SWAP1 POP SWAP3 SWAP2 POP POP JUMP JUMPDEST PUSH2 0x10AC DUP3 PUSH2 0xB2E JUMP JUMPDEST PUSH8 0xFFFFFFFFFFFFFFFF DUP2 GT ISZERO PUSH2 0x10C5 JUMPI PUSH2 0x10C4 PUSH2 0x85B JUMP JUMPDEST JUMPDEST PUSH2 0x10CF DUP3 SLOAD PUSH2 0xEC6 JUMP JUMPDEST PUSH2 0x10DA DUP3 DUP3 DUP6 PUSH2 0x1016 JUMP JUMPDEST PUSH1 0x0 PUSH1 0x20 SWAP1 POP PUSH1 0x1F DUP4 GT PUSH1 0x1 DUP2 EQ PUSH2 0x110D JUMPI PUSH1 0x0 DUP5 ISZERO PUSH2 0x10FB JUMPI DUP3 DUP8 ADD MLOAD SWAP1 POP JUMPDEST PUSH2 0x1105 DUP6 DUP3 PUSH2 0x1087 JUMP JUMPDEST DUP7 SSTORE POP PUSH2 0x116D JUMP JUMPDEST PUSH1 0x1F NOT DUP5 AND PUSH2 0x111B DUP7 PUSH2 0xEF7 JUMP JUMPDEST PUSH1 0x0 JUMPDEST DUP3 DUP2 LT ISZERO PUSH2 0x1143 JUMPI DUP5 DUP10 ADD MLOAD DUP3 SSTORE PUSH1 0x1 DUP3 ADD SWAP2 POP PUSH1 0x20 DUP6 ADD SWAP5 POP PUSH1 0x20 DUP2 ADD SWAP1 POP PUSH2 0x111E JUMP JUMPDEST DUP7 DUP4 LT ISZERO PUSH2 0x1160 JUMPI DUP5 DUP10 ADD MLOAD PUSH2 0x115C PUSH1 0x1F DUP10 AND DUP3 PUSH2 0x1069 JUMP JUMPDEST DUP4 SSTORE POP JUMPDEST PUSH1 0x1 PUSH1 0x2 DUP9 MUL ADD DUP9 SSTORE POP POP POP JUMPDEST POP POP POP POP POP POP JUMP JUMPDEST PUSH1 0x0 DUP2 SLOAD PUSH2 0x1182 DUP2 PUSH2 0xEC6 JUMP JUMPDEST PUSH2 0x118C DUP2 DUP7 PUSH2 0xB39 JUMP JUMPDEST SWAP5 POP PUSH1 0x1 DUP3 AND PUSH1 0x0 DUP2 EQ PUSH2 0x11A7 JUMPI PUSH1 0x1 DUP2 EQ PUSH2 0x11BD JUMPI PUSH2 0x11F0 JUMP JUMPDEST PUSH1 0xFF NOT DUP4 AND DUP7 MSTORE DUP2 ISZERO ISZERO PUSH1 0x20 MUL DUP7 ADD SWAP4 POP PUSH2 0x11F0 JUMP JUMPDEST PUSH2 0x11C6 DUP6 PUSH2 0xEF7 JUMP JUMPDEST PUSH1 0x0 JUMPDEST DUP4 DUP2 LT ISZERO PUSH2 0x11E8 JUMPI DUP2 SLOAD DUP2 DUP10 ADD MSTORE PUSH1 0x1 DUP3 ADD SWAP2 POP PUSH1 0x20 DUP2 ADD SWAP1 POP PUSH2 0x11C9 JUMP JUMPDEST DUP1 DUP9 ADD SWAP6 POP POP POP JUMPDEST POP POP POP SWAP3 SWAP2 POP POP JUMP JUMPDEST PUSH1 0x0 PUSH2 0x160 DUP3 ADD SWAP1 POP PUSH2 0x120F PUSH1 0x0 DUP4 ADD DUP15 PUSH2 0xAD9 JUMP JUMPDEST PUSH2 0x121C PUSH1 0x20 DUP4 ADD DUP14 PUSH2 0xAD9 JUMP JUMPDEST DUP2 DUP2 SUB PUSH1 0x40 DUP4 ADD MSTORE PUSH2 0x122E DUP2 DUP13 PUSH2 0x1175 JUMP JUMPDEST SWAP1 POP PUSH2 0x123D PUSH1 0x60 DUP4 ADD DUP12 PUSH2 0xAD9 JUMP JUMPDEST DUP2 DUP2 SUB PUSH1 0x80 DUP4 ADD MSTORE PUSH2 0x124F DUP2 DUP11 PUSH2 0x1175 JUMP JUMPDEST SWAP1 POP PUSH2 0x125E PUSH1 0xA0 DUP4 ADD DUP10 PUSH2 0xAD9 JUMP JUMPDEST PUSH2 0x126B PUSH1 0xC0 DUP4 ADD DUP9 PUSH2 0xAD9 JUMP JUMPDEST PUSH2 0x1278 PUSH1 0xE0 DUP4 ADD DUP8 PUSH2 0xAD9 JUMP JUMPDEST PUSH2 0x1286 PUSH2 0x100 DUP4 ADD DUP7 PUSH2 0xAE8 JUMP JUMPDEST PUSH2 0x1294 PUSH2 0x120 DUP4 ADD DUP6 PUSH2 0xAE8 JUMP JUMPDEST PUSH2 0x12A2 PUSH2 0x140 DUP4 ADD DUP5 PUSH2 0xAE8 JUMP JUMPDEST SWAP13 SWAP12 POP POP POP POP POP POP POP POP POP POP POP POP JUMP INVALID LOG2 PUSH5 0x6970667358 0x22 SLT KECCAK256 0x22 0x29 RETURNDATACOPY 0xEE REVERT 0xD8 DUP7 PUSH24 0xD882C16AAEDCE37BD1329389A543D14548A9BEF19D0DF9A0 PUSH5 0x736F6C6343 STOP ADDMOD SGT STOP CALLER "
				},
				"gasEstimates": {
					"creation": {
						"codeDepositCost": "968000",
						"executionCost": "65244",
						"totalCost": "1033244"
					},
					"external": {
						"PatientsSerial(uint256)": "infinite",
						"addSerial(uint256,string,uint256,string,uint256,uint256,bool,bool)": "infinite",
						"doctorCount()": "2496",
						"doctors(uint256)": "infinite",
						"patientCount()": "2451",
						"patients(uint256)": "infinite",
						"serialCount()": "2473",
						"specialPatientCount()": "2495"
					}
				},
				"methodIdentifiers": {
					"PatientsSerial(uint256)": "12e4c274",
					"addSerial(uint256,string,uint256,string,uint256,uint256,bool,bool)": "0441078a",
					"doctorCount()": "78522bc4",
					"doctors(uint256)": "6efb1b84",
					"patientCount()": "a0303c41",
					"patients(uint256)": "93119a83",
					"serialCount()": "b613e00a",
					"specialPatientCount()": "c8f6306d"
				}
			},
			"storageLayout": {
				"storage": [
					{
						"astId": 53,
						"contract": "contructs/patientserial.sol:myContract",
						"label": "doctors",
						"offset": 0,
						"slot": "0",
						"type": "t_mapping(t_uint256,t_struct(Doctor)48_storage)"
					},
					{
						"astId": 58,
						"contract": "contructs/patientserial.sol:myContract",
						"label": "patients",
						"offset": 0,
						"slot": "1",
						"type": "t_mapping(t_uint256,t_struct(Patient)31_storage)"
					},
					{
						"astId": 63,
						"contract": "contructs/patientserial.sol:myContract",
						"label": "PatientsSerial",
						"offset": 0,
						"slot": "2",
						"type": "t_mapping(t_uint256,t_struct(Serial)8_storage)"
					},
					{
						"astId": 66,
						"contract": "contructs/patientserial.sol:myContract",
						"label": "head",
						"offset": 0,
						"slot": "3",
						"type": "t_uint256"
					},
					{
						"astId": 69,
						"contract": "contructs/patientserial.sol:myContract",
						"label": "tail",
						"offset": 0,
						"slot": "4",
						"type": "t_uint256"
					},
					{
						"astId": 72,
						"contract": "contructs/patientserial.sol:myContract",
						"label": "doctorCount",
						"offset": 0,
						"slot": "5",
						"type": "t_uint256"
					},
					{
						"astId": 75,
						"contract": "contructs/patientserial.sol:myContract",
						"label": "patientCount",
						"offset": 0,
						"slot": "6",
						"type": "t_uint256"
					},
					{
						"astId": 78,
						"contract": "contructs/patientserial.sol:myContract",
						"label": "specialPatientCount",
						"offset": 0,
						"slot": "7",
						"type": "t_uint256"
					},
					{
						"astId": 81,
						"contract": "contructs/patientserial.sol:myContract",
						"label": "serialCount",
						"offset": 0,
						"slot": "8",
						"type": "t_uint256"
					}
				],
				"types": {
					"t_bool": {
						"encoding": "inplace",
						"label": "bool",
						"numberOfBytes": "1"
					},
					"t_mapping(t_uint256,t_struct(Doctor)48_storage)": {
						"encoding": "mapping",
						"key": "t_uint256",
						"label": "mapping(uint256 => struct myContract.Doctor)",
						"numberOfBytes": "32",
						"value": "t_struct(Doctor)48_storage"
					},
					"t_mapping(t_uint256,t_struct(Patient)31_storage)": {
						"encoding": "mapping",
						"key": "t_uint256",
						"label": "mapping(uint256 => struct myContract.Patient)",
						"numberOfBytes": "32",
						"value": "t_struct(Patient)31_storage"
					},
					"t_mapping(t_uint256,t_struct(Serial)8_storage)": {
						"encoding": "mapping",
						"key": "t_uint256",
						"label": "mapping(uint256 => struct myContract.Serial)",
						"numberOfBytes": "32",
						"value": "t_struct(Serial)8_storage"
					},
					"t_string_storage": {
						"encoding": "bytes",
						"label": "string",
						"numberOfBytes": "32"
					},
					"t_struct(Doctor)48_storage": {
						"encoding": "inplace",
						"label": "struct myContract.Doctor",
						"members": [
							{
								"astId": 33,
								"contract": "contructs/patientserial.sol:myContract",
								"label": "doctorId",
								"offset": 0,
								"slot": "0",
								"type": "t_uint256"
							},
							{
								"astId": 35,
								"contract": "contructs/patientserial.sol:myContract",
								"label": "name",
								"offset": 0,
								"slot": "1",
								"type": "t_string_storage"
							},
							{
								"astId": 37,
								"contract": "contructs/patientserial.sol:myContract",
								"label": "digree",
								"offset": 0,
								"slot": "2",
								"type": "t_string_storage"
							},
							{
								"astId": 39,
								"contract": "contructs/patientserial.sol:myContract",
								"label": "Spaciality",
								"offset": 0,
								"slot": "3",
								"type": "t_string_storage"
							},
							{
								"astId": 41,
								"contract": "contructs/patientserial.sol:myContract",
								"label": "dutyStartTime",
								"offset": 0,
								"slot": "4",
								"type": "t_uint256"
							},
							{
								"astId": 43,
								"contract": "contructs/patientserial.sol:myContract",
								"label": "dutyEndTime",
								"offset": 0,
								"slot": "5",
								"type": "t_uint256"
							},
							{
								"astId": 45,
								"contract": "contructs/patientserial.sol:myContract",
								"label": "Availablity",
								"offset": 0,
								"slot": "6",
								"type": "t_bool"
							},
							{
								"astId": 47,
								"contract": "contructs/patientserial.sol:myContract",
								"label": "roomNo",
								"offset": 0,
								"slot": "7",
								"type": "t_uint256"
							}
						],
						"numberOfBytes": "256"
					},
					"t_struct(Patient)31_storage": {
						"encoding": "inplace",
						"label": "struct myContract.Patient",
						"members": [
							{
								"astId": 10,
								"contract": "contructs/patientserial.sol:myContract",
								"label": "Date",
								"offset": 0,
								"slot": "0",
								"type": "t_uint256"
							},
							{
								"astId": 12,
								"contract": "contructs/patientserial.sol:myContract",
								"label": "patientId",
								"offset": 0,
								"slot": "1",
								"type": "t_uint256"
							},
							{
								"astId": 14,
								"contract": "contructs/patientserial.sol:myContract",
								"label": "name",
								"offset": 0,
								"slot": "2",
								"type": "t_string_storage"
							},
							{
								"astId": 16,
								"contract": "contructs/patientserial.sol:myContract",
								"label": "age",
								"offset": 0,
								"slot": "3",
								"type": "t_uint256"
							},
							{
								"astId": 18,
								"contract": "contructs/patientserial.sol:myContract",
								"label": "syndrome",
								"offset": 0,
								"slot": "4",
								"type": "t_string_storage"
							},
							{
								"astId": 20,
								"contract": "contructs/patientserial.sol:myContract",
								"label": "serialNo",
								"offset": 0,
								"slot": "5",
								"type": "t_uint256"
							},
							{
								"astId": 22,
								"contract": "contructs/patientserial.sol:myContract",
								"label": "roomNo",
								"offset": 0,
								"slot": "6",
								"type": "t_uint256"
							},
							{
								"astId": 24,
								"contract": "contructs/patientserial.sol:myContract",
								"label": "doctorId",
								"offset": 0,
								"slot": "7",
								"type": "t_uint256"
							},
							{
								"astId": 26,
								"contract": "contructs/patientserial.sol:myContract",
								"label": "paymentStatus",
								"offset": 0,
								"slot": "8",
								"type": "t_bool"
							},
							{
								"astId": 28,
								"contract": "contructs/patientserial.sol:myContract",
								"label": "special",
								"offset": 1,
								"slot": "8",
								"type": "t_bool"
							},
							{
								"astId": 30,
								"contract": "contructs/patientserial.sol:myContract",
								"label": "sarved",
								"offset": 2,
								"slot": "8",
								"type": "t_bool"
							}
						],
						"numberOfBytes": "288"
					},
					"t_struct(Serial)8_storage": {
						"encoding": "inplace",
						"label": "struct myContract.Serial",
						"members": [
							{
								"astId": 3,
								"contract": "contructs/patientserial.sol:myContract",
								"label": "serialNo",
								"offset": 0,
								"slot": "0",
								"type": "t_uint256"
							},
							{
								"astId": 5,
								"contract": "contructs/patientserial.sol:myContract",
								"label": "patientId",
								"offset": 0,
								"slot": "1",
								"type": "t_uint256"
							},
							{
								"astId": 7,
								"contract": "contructs/patientserial.sol:myContract",
								"label": "sarved",
								"offset": 0,
								"slot": "2",
								"type": "t_bool"
							}
						],
						"numberOfBytes": "96"
					},
					"t_uint256": {
						"encoding": "inplace",
						"label": "uint256",
						"numberOfBytes": "32"
					}
				}
			},
			"userdoc": {
				"kind": "user",
				"methods": {},
				"version": 1
			}
		}
	}
}